:1000000090FDFF1F81120000051300000513000082
:1000100000000000000000000000000000000000E0
:1000200000000000000000000000000005130000B8
:10003000000000000000000005130000ED120000A9
:100040000513000005130000051300000513000050
:100050000000000005130000051300000513000058
:100060000513000005130000051300000513000030
:100070000513000005130000051300000513000020
:100080000513000005130000051300000513000010
:100090000513000005130000051300000000000018
:1000A000F9120000051300000513000005130000FD
:1000B00005130000000000000513000005130000F8
:10040000FFFFFFFFFFFFFFFFFFFFFFFFFEFFFFFFFD
:1004100090B583B000AF78607B68202B27DC154A4D
:100420001449C0235B00C9587868134B034004D5B6
:10043000013B20204042034301330120041C9C4027
:10044000231C1943C0235B00D1500A4A094B196889
:100450007868094B034004D5013B20204042034308
:1004600001330120041C9C40231C0B431360BD4638
:1004700003B090BD00E100E01F00008080B582B0B5
:1004800000AF021CFB1D1A70FB1D1B78012B0DD049
:10049000022B1FD0002B32D11F4A1F491F4BCB58B4
:1004A000A021C90219431D4BD15028E000F042F8A9
:1004B000194A1949194BC958194B1940174BD150B2
:1004C000154A1549154BCB588021C9021943134BC6
:1004D000D15014E0104A1049104BC958114B194023
:1004E0000E4BD1500C4A0C490F4BCB588021890040
:1004F00019430D4BD1500D4B802292005A61064A90
:1005000005490B4BCB588021C9021943084BD150E8
:10051000BD4602B080BDC04600700440041000001B
:10052000FFFFFEFFFFFFFBFF3810000000900440BC
:100530003410000080B500AFBD4680BD80B582B0EC
:1005400000AF78600A1CFB1C1A70FB1C1B78013B77
:100550007A68D2180A4B1A600A4B7A681A600A4BFA
:10056000FA1C12781A70094B7A681A60084B7A687C
:100570001A60084B00221A70BD4602B080BDC0460A
:10058000ACF5FF1FB4F5FF1FBDF5FF1FB8F5FF1F4A
:10059000B0F5FF1FBCF5FF1F80B500AF3C4B1A68DC
:1005A0003C4B1A603C4B00221A700120FFF766FF9B
:1005B0001820FFF72DFF394A384986235B00CB5CB2
:1005C000DBB2802149420B43D9B286235B00D15470
:1005D000C046324A86235B00D35CDBB2DBB25BB23F
:1005E000002BF6DB2D4A2E4B1B0AD9B29C23D1548B
:1005F0002A4A2B4B1B0CD9B2B023D154274A284B83
:100600001B0ED9B2B423D154244A24498023CB5C95
:10061000DBB202210B43D9B28023D1541F4A1F49B8
:100620008423CB5CDBB201210B43D9B28423D154A8
:100630001A4A1A4980235B00CB5CD9B23F230B4096
:10064000D9B280235B00D154144A144986235B003D
:10065000CB5CDBB240210B43D9B286235B00D15483
:100660000E4A0E499423CB5CDBB201210B43D9B275
:100670009423D154094A094984235B00CB5CDBB243
:1006800010210B43D9B284235B00D154BD4680BDF9
:1006900000F0FF1F44F6FF1F7CF7FF1F00200740FC
:1006A00000F8FF1F80B586B000AF3960FB1D011C4C
:1006B0001970BB1D1A703B1C103300221A803B1CA2
:1006C0000F33FA1D12781A70FB1D1B78002B04D013
:1006D000FB1DFA1D127892001A70FB1DFA1D12788C
:1006E00002321A70FB1D1A785A4B9200D3587B6164
:1006F000594B1B781A1C0123134024D0574B3A68DE
:100700001A60574BBA1D12781A70564B1B68DB796A
:100710001B0299B2534B1B689B791A1C3B1C10336C
:100720008A181A80BB1D1B789BB23A1C10321288A3
:100730009A4208D2FB1D1B78022B04D1494B1B683F
:100740009A79474B1A70FB1D1B78474AD25C444B81
:100750001B789A4218D2FB1D1A783B1C133342496E
:100760008A5C1A703E4B1A78FB1D1B783E49CB5CA5
:10077000D31ADAB23A4B1A70374B1B7801229343E3
:10078000DAB2354B1A700EE03B1C1333344A127840
:100790001A70334B00221A702F4B1B78012213431F
:1007A000DAB22D4B1A70FB1D1B783A1C13321278EB
:1007B00092B22E49DB00CB185A8009E07B695A1CA3
:1007C0007A61264A1268501C2449086012781A700F
:1007D0003B1C13331B783A1C1332591E1170002B2B
:1007E000ECD1234B1B781A1C3B1C0F331B78DA40CF
:1007F0000123134016D0FB1D1A781C4BD200882110
:10080000D1543B1C0F331B780122111C99400B1C47
:10081000DBB2DB43DBB2164A12781340DAB2144B78
:100820001A7013E0FB1D1A78104BD200C821D15466
:100830003B1C0F331B780122111C99400B1CDAB2B0
:100840000B4B1B781343DAB2094B1A70BD4606B046
:1008500080BDC04600F0FF1F38F7FF1F80F8FF1F64
:1008600020F6FF1F44F6FF1F9C1E000000F8FF1F2C
:10087000D0F6FF1F80B584B000AF021C3960FB1DAD
:100880001A70FB1D1A78FB1D01321A70FB1D1A78B5
:10089000144B9200D358FB60FB1D1B78124ADB00FF
:1008A000D3185A883B1C0B331A70FB1D3A1C0B32B1
:1008B00012781A7007E03B685A1C3A60FA68511CBB
:1008C000F96012781A703B1C0B331B783A1C0B3200
:1008D000591E1170002BEED1FB1D1B78181CBD4654
:1008E00004B080BD00F0FF1F00F8FF1F80B584B08A
:1008F00000AF021CFB1D1A70FB1D1B789B000E4AEB
:10090000DB00D3185B881B0A9BB2DAB2FB1D1B7895
:100910009B000949DB00CB185B881B02DBB2134349
:10092000DAB23B1C0F331A703B1C0F331B789BB29F
:10093000181CBD4604B080BD00F8FF1F80B500AF95
:100940001C4AC4230521D1541A4AC8230521D15475
:10095000184ACC230921D154164AD0230121D1545D
:10096000144AD4230121D154124AD8230121D1544D
:10097000114A30230021D1540F4B00225A860F4ACE
:100980000D4B5A630C4A50230021D1540A4A52237A
:100990000021D1520A4A084B5A65074A6023802138
:1009A000D154054A6223FF21D152064A024B5A66AE
:1009B000BD4680BD0020074000F8FF1F90F6FF1FD6
:1009C0006CF6FF1FC4F8FF1F80B500AF3C4B1B68DF
:1009D0005B78092B6ED89A003A4BD3181B689F4658
:1009E000002000210022FFF75DFE374B03221A7022
:1009F00063E0334B1B68DB78022B0AD0032B0FD04C
:100A0000012B22D1314B0020191C1222FFF74AFE84
:100A10001EE02F4B0020191C4322FFF743FE17E076
:100A2000274B1B689B781A1C2A4B9200D258244BE8
:100A30001B689B78191C274B8900CB581B7800201A
:100A4000111C1A1CFFF72EFE02E000F065F9C046EB
:100A500033E01B4B1B68DA78194B1B689B78D31863
:100A6000DAB21D4B1A70164B1B68DB781A1C144B3C
:100A70001B689B78D318002B0AD0FFF75FFF00207C
:100A800000210022FFF70EFE0F4B01221A7014E026
:100A900013E0114B0020191C0122FFF703FE0CE0AC
:100AA0000E4B00221A800D4B0020191C0222FFF76A
:100AB000F9FD02E000F030F9C046BD4680BDC046F9
:100AC00044F6FF1FAC1E00007CF7FF1F041E000051
:100AD000581E000040F0FF1F7DF7FF1F8CF6FF1F20
:100AE00090B583B000AF234B1B7801229343DAB259
:100AF000204B1A70204B1B681B781A1C1F231340B5
:100B0000012B10D0022B1FD0002B23D11A4B1B68B6
:100B10001B781A1C1F23134001D1FFF755FF174BF9
:100B200088221A7019E0FC1D00F0CAFA031C237019
:100B3000FB1D1B78002B03D1104B88221A700CE090
:100B40000E4BC8221A7008E000F01CF80B4B8822EC
:100B50001A7002E000F0E0F8C046094A0849942300
:100B6000CB5CDBB220218B43D9B29423D154BD4658
:100B700003B090BDD0F6FF1F44F6FF1F00F8FF1F23
:100B80000020074080B582B000AF284B1B685B781F
:100B9000012B1DD0032B31D0002B00D042E0244B81
:100BA0001B781A1C214B1B685B79DA400123134028
:100BB00004D0BB1D802252001A8002E0BB1D00221F
:100BC0001A80BB1D0020191C0222FFF76BFD29E0D3
:100BD000164B1B685B790122111C99400B1CDBB280
:100BE000DB43DBB2124A12781340DAB2104B1A70B0
:100BF000002000210022FFF755FD13E00B4B1B687E
:100C00005B790122111C99400B1CDAB2084B1B784E
:100C10001343DAB2064B1A70002000210022FFF7BE
:100C200041FDC046BD4602B080BDC04644F6FF1F30
:100C300068F6FF1F80B582B000AF214A9023D35CD5
:100C4000D9B2FB1D08220A401A701D4A9023D35CBA
:100C5000DAB2BB1D12091A70BB1D1B78002B18D00D
:100C6000FB1D1B78002B27D1BB1D1B789A00154B51
:100C7000D2000021D154BB1D1B780122111C9940C8
:100C80000B1CDAB2104B1B781343DAB20E4B1A70FE
:100C900012E0FB1D1B78002B02D000F017F80BE0D0
:100CA000084B1B789B061B0FDBB20D2B02D1FFF705
:100CB00017FF01E000F048F8BD4602B080BDC04615
:100CC0000020074000F8FF1F14F7FF1F80B500AF9A
:100CD0000D4B1B78032B0FD10C4A0D4B1B689978D9
:100CE0009823D154084B04221A700A4B1B78012216
:100CF0001343DAB2074B1A70002000210022FFF7DD
:100D0000D1FCBD4680BDC0467CF7FF1F00200740D8
:100D100044F6FF1F38F7FF1F80B500AF084A0849A7
:100D2000C023CB5CDBB202210B43D9B2C023D15428
:100D3000044B88221A70034B20225A80BD4680BD86
:100D40000020074000F8FF1F80B500AF054B1B785F
:100D500001221343DAB2034B1A70034B88221A7034
:100D6000BD4680BD14F7FF1F00F8FF1F80B500AF20
:100D70000F4AC023D35CDBB21A1C0223134009D0F4
:100D80000B4A0B49C023CB5CDBB202218B43D9B2A7
:100D9000C023D154064A06498023CB5CDBB28021B4
:100DA00049420B43D9B28023D154BD4680BDC046D1
:100DB0000020074080B500AF414BFF221A70414B25
:100DC00000221A70404B00221A70404AC4230021AE
:100DD000D1543E4AC8230021D1543C4ACC2300219F
:100DE000D1543A4AD0230021D154384AD423002187
:100DF000D154364AD8230021D154354B20225A8071
:100E0000344A334B5A60324BC8221A70304B20227E
:100E10005A81314A2E4BDA602D4BC8221A722C4B64
:100E200020225A822D4A2A4B5A61294B88221A7451
:100E3000274B20225A832A4A254BDA61244B8822E9
:100E40001A76224AC0230D21D154204A8823FF213B
:100E5000D1541E4A8023FF21D1541C4A98230021DB
:100E6000D1541A4A8C23FF21D154184A174984239C
:100E7000CB5CDBB208210B43D9B28423D154134A93
:100E800012498423CB5CDBB204210B43D9B2842307
:100E9000D1540E4A0D498423CB5CDBB202210B43B3
:100EA000D9B28423D154094A08498423CB5CDBB2EC
:100EB00001210B43D9B28423D154BD4680BDC04625
:100EC00038F7FF1FD0F6FF1F69F6FF1F002007400D
:100ED00000F8FF1FB0F6FF1F5CF7FF1F3CF7FF1F76
:100EE00084F8FF1F80B500AF2A4A8023D35CDBB2B1
:100EF0001A1C0123134002D0FFF75CFF48E0254A8B
:100F00008023D35CDBB21A1C0423134003D0214A94
:100F100080230421D1541F4A8023D35CDBB2DBB28F
:100F20005BB2002B01DAFFF721FF1A4A8023D35C62
:100F3000DBB21A1C0823134015D0164A1549942316
:100F4000CB5CDBB202210B43D9B29423D154FFF71F
:100F500071FE104A0F498023CB5CDBB208210B43A2
:100F6000D9B28023D1540B4A8023D35CDBB21A1C44
:100F70001023134009D0074A06498023CB5CDBB21B
:100F800010210B43D9B28023D154024A8023D35C71
:100F9000BD4680BD0020074080B500AF0F4B00224A
:100FA0001A70FFF7F9FA0E4B0D4AD269C021890079
:100FB0000A43DA610B4B962292011A60094B002218
:100FC0001A71084B00225A71064B08229A71064B7F
:100FD000181C8021FFF7B2FABD4680BD00F2FF1F4A
:100FE00000B0044004F9FF1F0CF9FF1F80B500AFEB
:100FF0002C4B1B78DBB21A1C0223134019D02A4A4F
:1010000029499423CB5CDBB202210B43D9B2942350
:10101000D154264B00221A70254B01221A70FFF77B
:10102000BBFF204B1B78DBB202229343DAB21D4B8D
:101030001A701E4B1B78202B13D0222B2AD0002B8A
:101040002ED1C0461B4B1B78012BFBD1184B1B78B4
:10105000002B02D0164B00221A70144B00221A707B
:101060001EE0154B1B781A1C0123134011D0124BA4
:101070001B7801229343DAB20F4B1A700F4B0020FA
:10108000191CFFF7F7FB002000210022FFF70AFBE5
:1010900006E005E0002000210022FFF703FBC04628
:1010A000BD4680BD01F2FF1F0020074000F2FF1F78
:1010B00050F0FF1F7CF7FF1F14F7FF1F04F9FF1FFD
:1010C00080B582B000AFFB1D00221A70214B1B6857
:1010D0005B78212B11D004DC0A2B07D0202B13D0F6
:1010E00031E0222B17D0AA2B1CD02CE01A4B002069
:1010F000191C0122FFF7D6FA25E0184B0020191C15
:101100000722FFF7CFFA1EE0154B20221A70FB1DB5
:1011100001221A7017E0124B22221A70FB1D0022C6
:101120001A7010E00F4B181C8021FFF707FA0E4BC6
:101130001B78802252421343DAB20B4B1A70094BD0
:10114000FF221A70C046FB1D1B78181CBD4602B05A
:1011500080BDC04644F6FF1F15F7FF1F04F9FF1FAF
:1011600000F2FF1F0CF9FF1F14F7FF1F80B500AF3F
:10117000164B164A5268802149040A435A60134BA1
:10118000124A1268802109060A431A600F4B0F4A5F
:1011900052688021C9040A435A600C4B0B4A1268FA
:1011A0008021C9050A431A60084B084A5268802109
:1011B00089040A435A60054B044A12688021890554
:1011C0000A431A60FFF7E8FEBD4680BD0070044088
:1011D00080B584B000AF786001235B42FB60FFF70D
:1011E00005FF144B1B781A1C082313401DD0032045
:1011F000FFF77CFB104A62232021D1520E4A602364
:101200008021D1540B4B1B7808229343DAB2094B4F
:101210001A700A4B0220191C0122FFF743FA074BF0
:101220001A787B681A700123FB60FB68181CBD46A6
:1012300004B080BD14F7FF1F00F8FF1FC4F8FF1FA4
:1012400080B582B000AF78607A680B4B9A4201D9C2
:1012500001230CE0094B7A681202120A013A5A6023
:10126000064B00229A60054B07221A600023181CC7
:10127000BD4602B080BDC046FFFFFF0010E000E0A9
:1012800080B582B000AF00F093FB124B7B60124B35
:101290003B6007E03B681A1D3A607A68111D79606F
:1012A00012681A603A680D4B9A42F3D30C4B3B60BC
:1012B00004E03B681A1D3A6000221A603A68094B44
:1012C0009A42F6D3084B181CFFF7BAFF00F07EFADB
:1012D000FEE7C046E41F000000F0FF1FC8F0FF1F3C
:1012E00000F2FF1F8CF9FF1F80BB000080B500AF2C
:1012F00000F090FBBD4680BD80B500AFFFF7F2FD6A
:10130000BD4680BD80B500AFFEE7C04680B500AFEA
:101310000E4A88235B010021D1500C4A0B490C4B2B
:10132000CB588021C9001943094BD150094B802269
:1013300052001A60084B01229A60074B064A526914
:1013400001210A435A61BD4680BDC0460070044079
:101350003810000000A0044040F00F4080B582B07B
:1013600000AF78603960C046174A84235B00D258CA
:1013700080239B041340F7D1134A84235B00802110
:101380004904D150104A796880235B00D1500E4A3D
:101390003B681B02190A84235B00D1500A4A0A49A0
:1013A00086235B00CB588021C905194386235B0047
:1013B000D150064B054A9278D2B220210A43D2B2CC
:1013C0009A70BD4602B080BD0080004000600740BA
:1013D00080B500AF374A3749374BCB5880210901D8
:1013E0001943354BD150354B802292001A61334B53
:1013F000802292005A61314B802292009A61304BD8
:101400002F4A526940210A435A612A4A29492D4BE1
:10141000CB588021C90319432A4BD1502A4B2A4A61
:10142000D278D2B21A210A43D2B2DA70264B264AB7
:101430009278D2B210210A43D2B29A70224B402243
:101440005A70214B204AD278D2B240210A43D2B2FC
:10145000DA70184A17491D4BCB58022119431B4B10
:10146000D150144A134982235B01CB588021490093
:10147000194382235B01D150154B154A1278D1B222
:1014800040220A40D2B21A70114B114A1278D2B2DD
:101490006F2149420A43D2B21A700E4A82235B007E
:1014A0000D49D1500B4A86235B000C49D150BD46F3
:1014B00080BDC046007004403810000000B00440F9
:1014C00080F00F4034100000006007403C10000026
:1014D000001002400080004006600740800052601B
:1014E00080B588B000AFF860B9607A600023BB6156
:1014F00058E000237B61FA68BB69D2183B1C1E339D
:1015000012781A703B1C1F3300221A701FE03B1C1C
:101510001E331B785BB2002B04DA7B69062213436F
:101520007B6103E07B69042213437B613A1C1E321A
:101530003B1C1E331B78DB1813707B69DB007B615F
:101540003B1C1F331A783B1C1F3301321A703B1CA3
:101550001F331B78072BDAD97B69DB087B61BA69FB
:10156000131C5B009B18BA68D3183A1C1632127809
:101570001A70BA69131C5B009B180133BA68D31840
:101580003A1C153212781A70BA69131C5B009B184A
:101590000233BA68D3183A1C143212781A70BB6935
:1015A0000133BB61BA697B689A42A2D3BD4608B0D9
:1015B00080BDC04680B500AF124B1B785A1E9341C8
:1015C000DBB201225340DBB21A1C01231340DAB212
:1015D0000C4B1A700B4B1B78002B11D00A4B1B784D
:1015E0001A1C0A4B1A600A4B00221A60084B002290
:1015F0005A70054B1A78064B1A70054B00229A70E8
:10160000BD4680BD98F5FF1F58F0FF1F5CF0FF1F1F
:1016100054F0FF1F80B582B000AF174B1B785A1EE5
:101620009341DBB201225340DBB21A1C0123134069
:10163000DAB2114B1A70114B00221A600E4B1B7854
:10164000002B15D0A0237B600EE07A680C4BD218DB
:101650000C4B111C1A1C0923081C111C1A1C00F02D
:101660003FFA7B6809337B607A68074B9A42ECD972
:10167000BD4602B080BDC04699F5FF1F9CF5FF1F17
:1016800004F2FF1FD41E00009303000080B500AFDA
:1016900000F0CCF9021C074B1B68D31AFA2B07D9B0
:1016A00000F0C4F9021C034B1A60034B0122DA60FC
:1016B000BD4680BDA0F5FF1F40F00F4080B500AFD4
:1016C00000F0B4F9021C094B1B68D31A322B0BD95A
:1016D00000F0ACF9021C054B1A60054AE5239B009B
:1016E000101C191CFFF73AFEBD4680BDA4F5FF1F74
:1016F00004F2FF1F80B582B000AF021CFB1D1A7000
:10170000FB1D1B781F2B05D9FB1D1B787E2B01D8D9
:10171000012300E000231A1C01231340DBB2181C34
:10172000BD4602B080BDC04680B582B000AF7860D3
:1017300039607A68131CDB009B183A68D218064B94
:10174000111C1A1C0923081C111C1A1C00F0C8F9D2
:10175000BD4602B080BDC046D41E000080B588B032
:1017600000AFF8607A603B603B1C0B330A1C1A70B8
:101770003B1C0B331B781A1C203A131C9B009A1835
:10178000114BD3187B61FA68131C5B009B185B003C
:101790003B610023FB6111E00023BB6108E03A6973
:1017A0007B68101C191CFFF7BFFFBB690133BB61CD
:1017B000BB69052BF3DDFB690133FB61FB69062B7C
:1017C000EADDBD4608B080BD1C1C000080B584B0B9
:1017D00000AF3B1C0E3300221A70FB1D00221A7052
:1017E000FFF794FDFFF7F4FD6B4AE5239B00101C07
:1017F00000211A1C00F07DF9684B1A68131CDB00ED
:101800009B181A1CA032644BD318654A101C191C73
:101810000322FFF765FEA923BB600BE0BA685E4BAD
:10182000D218604B101C191C092200F059F9BB6832
:101830000933BB60BA685C4B9A42EFD9FFF796FC5C
:10184000FFF724FFFFF73AFFBB1D181CFFF7C0FC92
:10185000031C013300D19EE03B1C0E331B78002B90
:1018600000D179E0BB1D1B78672B42D006DC0D2B25
:101870000BD0622B49D00A2B07D060E0722B2CD002
:10188000732B55D0692B4CD059E03B1C0F331B7880
:101890003A1C0A21D1543B1C181C00210A2200F0DA
:1018A000AFF9031CDAB2414B1A703D4B5B78002B49
:1018B00003D03E4B1A783A4B5A70394B1B78002BA9
:1018C00003D03A4B1A78364B1A70354B9B78002B65
:1018D00003D0364B1A78324B9A703B1C0E330022E1
:1018E0001A702F4B00221A60304B1A782C4B5A700A
:1018F00031E03B1C0E3300221A70294B00221A6083
:101900002A4B1A78264B1A7025E03B1C0E33002216
:101910001A70234B00221A60244B1A78204B9A70BD
:1019200019E03B1C0E3300221A70FFF743FE12E051
:101930003B1C0E3300221A70FFF76CFE0BE03B1CC1
:101940000F331B783A1C0F32591C1170BA1D1178D5
:101950003A1CD154C0461EE0BB1D1B78112B08D188
:101960003B1C0E3301221A703B1C0F3300221A70ED
:1019700011E0BB1D1B78181CFFF7BCFE031C002BDD
:1019800008D0FB1D1878BB1D1978064A044BFFF7D9
:10199000E5FEFFE7C04653E704F2FF1F9CF5FF1F7B
:1019A00054F0FF1FA4F2FF1F9303000058F0FF1F25
:1019B00080B500AF124B124AD278D1B21F220A4032
:1019C000D2B2602149420A43D2B2DA700D4A0D49BF
:1019D0000D4BCB58E0218B43402119430A4BD1508A
:1019E000084A0849094BCB58802109011943074B84
:1019F000D150074BA822D200DA60BD4680BDC04658
:101A00000040064000700440041000003810000040
:101A100000B0044080B500AF034B1B685A1C024B5A
:101A20001A60BD4680BDC046A8F5FF1F80B500AF57
:101A3000024B1B68181CBD4680BDC046A8F5FF1FA1
:101A4000002934D00123002210B488422CD3012471
:101A50002407A14204D2814202D209011B01F8E706
:101A6000E400A14204D2814202D249005B00F8E7BF
:101A7000884201D3401A1A434C08A04202D3001BEB
:101A80005C0822438C08A04202D3001B9C0822431E
:101A9000CC08A04202D3001BDC082243002803D05C
:101AA0001B0901D00909E3E7101C10BC704700288E
:101AB00001D00020C04307B4024802A140180290A0
:101AC00003BDC046190000000029F0D003B5FFF7A0
:101AD000B9FF0EBC4243891A1847C0467047C0463A
:101AE00010B50023934203D0CC5CC4540133F9E712
:101AF00010BD031C8218934202D019700133FAE71B
:101B000070470000F0B51C1C3C4B87B01B6805906B
:101B100002930491171C0B1C02991D785E1C4A1934
:101B2000517808220A4001D0331CF5E72D2D04D14D
:101B300001229E1C5D78019204E001922B2D01D1BF
:101B40005D789E1C1023221C9A430DD1302D08D1A4
:101B5000327820218A43582A49D175781C1C0236D4
:101B600002E0002C00D10A240120211C4042FFF792
:101B700067FF039001204042211CFFF7A5FF0023CF
:101B80008C46181C02994A195278510701D5303DEC
:101B900007E00321114017D05722012900D1372235
:101BA000AD1AA54210DA002B09DB039A904206D841
:101BB00001D1654503DC60430123281801E00123BE
:101BC0005B4235780136DDE7002B04DA05992222E5
:101BD0000A60012002E0019A002A00D04042002F52
:101BE00009D0049A002B00D0721E3A6003E0002C4A
:101BF000BAD10824B8E707B0F0BDC046C4F0FF1F53
:101C000038B5131C044A051C0C1C1068291C221C26
:101C1000FFF778FF38BDC046C0F0FF1F000000008E
:101C20000000005F00000007000700147F147F140D
:101C3000242A7F2A12231308646236495522500051
:101C400005030000001C2241000041221C00082A5C
:101C50001C2A0808083E0808005030000008080840
:101C60000808003030000020100804023E514945A9
:101C70003E00427F400042615149462141454B317F
:101C80001814127F1027454545393C4A494930010F
:101C9000710905033649494936064949291E003666
:101CA00036000000563600000008142241141414B7
:101CB00014144122140800020151090632497941E5
:101CC0003E7E1111117E7F494949363E41414122F4
:101CD0007F4141221C7F494949417F090901013E59
:101CE000414151327F0808087F00417F4100204078
:101CF000413F017F081422417F404040407F020461
:101D0000027F7F0408107F3E4141413E7F0909095F
:101D1000063E4151215E7F0919294646494949310C
:101D200001017F01013F4040403F1F2040201F7FB5
:101D30002018207F6314081463030478040361519E
:101D400049454300007F4141020408102041417F82
:101D5000000004020102044040404040000102042F
:101D60000020545454787F48444438384444442034
:101D7000384444487F3854545418087E09010208F6
:101D80001454543C7F0804047800447D40002040F3
:101D9000443D00007F10284400417F40007C04182F
:101DA00004787C0804047838444444387C141414BF
:101DB00008081414187C7C0804040848545454205F
:101DC000043F4440203C4040207C1C2040201C3CE0
:101DD0004030403C44281028440C5050503C44644F
:101DE000544C44000836410000007F00000041369A
:101DF0000800080408100808082A1C08081C2A08FB
:101E0000080000001201100102000020A2150FA519
:101E1000000001020301000004030904140346004A
:101E20007200650065007300630061006C0065006E
:101E300012035500530042002D005500410052008E
:101E400054000000120354004500530054005F008A
:101E500031002E003000000009024300020100C0E2
:101E600032090400000102020101052400100105ED
:101E70002401000104240200052406000107058155
:101E80000320000209040100020A00000107058284
:101E9000022000000705030220000000202020206F
:101EA000202020202020202020202020A00A000008
:101EB000B40A0000B40A0000B40A0000B40A00002A
:101EC000E0090000F2090000B40A0000920A0000D4
:101ED000520A0000924924924924924924000000A9
:101EE00043000020202020202020202028282828EF
:101EF00028202020202020202020202020202020DA
:101F00002020208810101010101010101010101029
:101F10001010100404040404040404040410101039
:101F200010101010414141414141010101010101E5
:101F30000101010101010101010101010101101073
:101F400010101010424242424242020202020202B9
:101F50000202020202020202020202020202101045
:101F60001010200000000000000000000000000031
:101F70000000000000000000000000000000000061
:101F80000000000000000000000000000000000051
:101F90000000000000000000000000000000000041
:101FA0000000000000000000000000000000000031
:101FB0000000000000000000000000000000000021
:101FC0000000000000000000000000000000000011
:101FD0000000000000000000000000000000000001
:031FE000000000FE
:101FE400B0F6FF1F5CF7FF1F3CF7FF1F84F8FF1FCD
:101FF40048F6FF1F24F6FF1F90F6FF1FF4F6FF1F9D
:10200400E4F8FF1F18F7FF1F6CF6FF1F80F7FF1F90
:10201400C4F8FF1F00F6FF1FA4F8FF1FD4F6FF1F2C
:10202400181E00001C1E0000301E0000441E00008C
:102034000100000001000000010000000100000098
:10204400000000000000000000000000000000008C
:10205400000000000000000000000000000000007C
:10206400E01E00000000000000000000000000006E
:10207400000000000000000000000000000000005C
:10208400000000000000000000000000000000004C
:10209400000000000000000000000000000000003C
:0820A40060F0FF1FE21E0000C6
:0400000300000410E5
:00000001FF
