:10000000900100207D120000011300000113000088
:1000100000000000000000000000000000000000E0
:1000200000000000000000000000000001130000BC
:10003000000000000000000001130000E9120000B1
:100040000113000001130000011300000113000060
:100050000000000001130000011300000113000064
:100060000113000001130000011300000113000040
:100070000113000001130000011300000113000030
:100080000113000001130000011300000113000020
:100090000113000001130000011300000000000024
:1000A000F51200000113000001130000011300000D
:1000B0000113000000000000011300000113000004
:10040000FFFFFFFFFFFFFFFFFFFFFFFFFEFFFFFFFD
:1004100080B582B000AF78607B68202B25DC144863
:10042000134AC0235B00D2587B6812490B4004D5A5
:10043000013B202149420B430133191C01238B400E
:100440001A43C0235B00C250094A094B19687B68F4
:100450000848034004D5013B2020404203430133B8
:10046000181C012383400B431360BD4602B080BDBE
:1004700000E100E01F00008080B582B000AF021CE8
:10048000FB1D1A70FB1D1B78012B0DD0022B1FD0FA
:10049000002B32D11F491F4A1F4BD358A022D20232
:1004A00013431D4A8B5028E000F042F81949194ABD
:1004B000194BD358194A1340174A8B501549154AFE
:1004C000154BD3588022D2021343134A8B5014E0A9
:1004D0001049104A104BD358114A13400E4A8B5002
:1004E0000C490C4A0F4BD3588022920013430D4AFB
:1004F0008B500D4B802292005A610649054A0B4BE6
:10050000D3588022D2021343084A8B50BD4602B012
:1005100080BDC0460070044004100000FFFFFEFFD5
:10052000FFFFFBFF38100000009004403410000073
:1005300080B500AFBD4680BD80B582B000AF7860A9
:100540000A1CFB1C1A70FB1C1B78013B7A68D21832
:100550000A4B1A600A4B7A681A600A4BFA1C127826
:100560001A70094B7A681A60084B7A681A60084B4F
:1005700000221A70BD4602B080BDC04614F9FF1FAC
:100580001CF9FF1F25F9FF1F20F9FF1F18F9FF1F96
:1005900024F9FF1F80B500AF3C4B1A683C4B1A6032
:1005A0003C4B00221A700120FFF766FF1820FFF76E
:1005B0002FFF3949384A86235B00D35CDBB28022A7
:1005C00052421343DAB286235B00CA54C046324A11
:1005D00086235B00D35CDBB2DBB25BB2002BF6DBC5
:1005E0002D4A2E4B1B0AD9B29C23D1542A4A2B4B9D
:1005F0001B0CD9B2B023D154274A284B1B0ED9B2B9
:10060000B423D154244A24498023CB5CDBB2022199
:100610000B43D9B28023D1541F4A1F498423CB5C9A
:10062000DBB201210B43D9B28423D1541A4A1A49AF
:1006300080235B00CB5CDBB23F210B40D9B280232F
:100640005B00D154144A144986235B00CB5CDBB2B7
:1006500040210B43D9B286235B00D1540E4A0E4988
:100660009423CB5CDBB201210B43D9B29423D15448
:10067000094A094984235B00CB5CDBB210210B43A0
:10068000D9B284235B00D154BD4680BD00F0FF1F6A
:1006900044FAFF1F7CFBFF1F0020074000FCFF1FE8
:1006A00080B586B000AF3960111CFB1D021C1A70AA
:1006B000BB1D0A1C1A701023FB1800221A800F237E
:1006C000FB18FA1D12781A70FB1D1B78002B04D042
:1006D000FB1DFA1D127892001A70FB1DFA1D12788C
:1006E00002321A70FB1D1A785A4B9200D3587B6164
:1006F000594B1B781A1C0123134025D0574B3A68DD
:100700001A60574BBA1D12781A70564B1B68DB796A
:100710009BB21B0299B2534B1B689B799AB2102370
:10072000FB188A181A80BB1D1B789BB21022BA18BE
:1007300012889A4208D2FB1D1B78022B04D1494B28
:100740001B689A79464B1A70FB1D1B78464AD25C8F
:10075000434B1B789A4218D2FB1D1A781323FB18BF
:1007600041498A5C1A703E4B1A78FB1D1B783E4942
:10077000CB5CD31ADAB23A4B1A70374B1B78012292
:100780009343DAB2344B1A700EE01323FB18344A49
:1007900012781A70324B00221A702F4B1B780122EC
:1007A0001343DAB22C4B1A70FB1D1B781322BA18B4
:1007B000127891B22D4ADB00D3180A1C5A8009E046
:1007C0007B695A1C7A61254A1268501C23490860CB
:1007D00012781A701323FB181B781322BA18591EAB
:1007E0001170002BECD1224B1B781A1C0F23FB1825
:1007F0001B78DA40131C0122134015D0FB1D1A7818
:100800001A4BD2008821D1540F23FB181B780122E8
:100810009A40131CDBB2DB43DBB2154A127813405B
:10082000DAB2134B1A7012E0FB1D1A780F4BD2008C
:10083000C821D1540F23FB181B7801229A40131CA6
:10084000DAB20B4B1B781343DAB2094B1A70BD4670
:1008500006B080BD00F0FF1F38FBFF1F80FCFF1FAC
:1008600020FAFF1F44FAFF1F3824000000FCFF1F7E
:10087000D0FAFF1F80B584B000AF021C3960FB1DA9
:100880001A70FB1D1A78FB1D01321A70FB1D1A78B5
:10089000144B9200D358FB60FB1D1B78124ADB00FF
:1008A000D3185A880B23FB181A70FB1D0B22BA1899
:1008B00012781A7007E03B685A1C3A60FA68511CBB
:1008C000F96012781A700B23FB181B780B22BA18E8
:1008D000591E1170002BEED1FB1D1B78181CBD4654
:1008E00004B080BD00F0FF1F00FCFF1F80B584B086
:1008F00000AF021CFB1D1A70FB1D1B789B000F4AEA
:10090000DB00D3185B881B0A9BB2D9B2FB1D1B7896
:100910009B000A4ADB00D3185B881B02DBB20A1C6F
:100920001343DAB20F23FB181A700F23FB181B783E
:100930009BB2181CBD4604B080BDC04600FCFF1F22
:1009400080B500AF1C4AC4230521D1541A4AC823DC
:100950000521D154184ACC230921D154164AD02359
:100960000121D154144AD4230121D154124AD8234D
:100970000121D154114B3022002199540F4B0022F8
:100980005A860F4A0D4B5A630C4B50220021995442
:100990000A4B5222002199520A4A084B5A65074BCA
:1009A000602280219954054B6222FF219952064A08
:1009B000024B5A66BD4680BD0020074000FCFF1F69
:1009C00090FAFF1F6CFAFF1FC4FCFF1F80B500AF39
:1009D0003B4B1B685B78092B6DD89A00394BD318B9
:1009E0001B689F46002000210022FFF759FE364B6E
:1009F00003221A7062E0324B1B68DB78022B0AD0AC
:100A0000032B0FD0012B21D1304B0020191C1222B7
:100A1000FFF746FE1DE02E4B0020191C4322FFF776
:100A20003FFE16E0264B1B689B781A1C294B920050
:100A3000D158234B1B689B781A1C264B9200D35825
:100A40001B7800201A1CFFF72BFE02E000F060F973
:100A5000C04633E01A4B1B68DA78194B1B689B7849
:100A6000D318DAB21C4B1A70154B1B68DB781A1CB2
:100A7000134B1B689B78D318002B0AD0FFF760FF3D
:100A8000002000210022FFF70BFE0F4B01221A70FD
:100A900014E013E0104B0020191C0122FFF700FEA8
:100AA0000CE00E4B00221A800C4B0020191C022275
:100AB000FFF7F6FD02E000F02BF9C046BD4680BD11
:100AC00044FAFF1F482400007CFBFF1FA023000006
:100AD000F423000040F0FF1F7DFBFF1F8CFAFF1F77
:100AE00090B583B000AF234B1B7801229343DAB259
:100AF000204B1A70204B1B681B781A1C1F231340B5
:100B0000012B10D0022B1FD0002B23D11A4B1B68B6
:100B10001B781A1C1F23134001D1FFF757FF174BF7
:100B200088221A7019E0FC1D00F0C8FA031C23701B
:100B3000FB1D1B78002B03D1104B88221A700CE090
:100B40000E4BC8221A7008E000F01CF80B4B8822EC
:100B50001A7002E000F0DCF8C046094A0849942304
:100B6000CB5CDBB220218B43D9B29423D154BD4658
:100B700003B090BDD0FAFF1F44FAFF1F00FCFF1F17
:100B80000020074080B582B000AF274B1B685B7820
:100B9000012B1ED0032B31D0002B00D041E0234B82
:100BA0001B781A1C204B1B685B79DA40131C01224E
:100BB000134004D0BB1D802252001A8002E0BB1DEE
:100BC00000221A80BB1D0020191C0222FFF768FDBD
:100BD00027E0154B1B685B791A1C01239340DBB29D
:100BE000DB43DBB2114A12781340DAB20F4B1A70B2
:100BF000002000210022FFF753FD12E00A4B1B6882
:100C00005B791A1C01239340DAB2084B1B7813431B
:100C1000DAB2064B1A70002000210022FFF740FDD7
:100C2000C046BD4602B080BD44FAFF1F68FAFF1FF0
:100C300080B582B000AF204A9023D35CDAB2FB1DAE
:100C400008210A401A701C4A9023D35CDAB2BB1DFB
:100C500012091A70BB1D1B78002B17D0FB1D1B78C7
:100C6000002B26D1BB1D1B789A00144BD20000210B
:100C7000D154BB1D1B7801229A40131CDAB2104BD1
:100C80001B781343DAB20E4B1A7012E0FB1D1B786F
:100C9000002B02D000F016F80BE0084B1B783C222A
:100CA0001340DBB2342B02D1FFF71AFF01E000F052
:100CB00047F8BD4602B080BD0020074000FCFF1F82
:100CC00014FBFF1F80B500AF0D4B1B78032B0FD11A
:100CD0000C4A0D4B1B6899789823D154084B042279
:100CE0001A700A4B1B7801221343DAB2074B1A70B1
:100CF000002000210022FFF7D3FCBD4680BDC04686
:100D00007CFBFF1F0020074044FAFF1F38FBFF1F3A
:100D100080B500AF084A0849C023CB5CDBB2022192
:100D20000B43D9B2C023D154044B88221A70034B11
:100D300020225A80BD4680BD0020074000FCFF1FD6
:100D400080B500AF054B1B7801221343DAB2034B89
:100D50001A70034B88221A70BD4680BD14FBFF1F1A
:100D600000FCFF1F80B500AF0F4AC023D35CDBB28D
:100D70001A1C0223134009D00B4A0B49C023CB5C39
:100D8000DBB202218B43D9B2C023D1540649064AB3
:100D90008023D35CDBB2802252421343DAB2802339
:100DA000CA54BD4680BDC0460020074080B500AF94
:100DB000414BFF221A70414B00221A70404B002217
:100DC0001A70404AC4230021D1543E4AC82300214E
:100DD000D1543C4ACC230021D1543A4AD02300219B
:100DE000D154384AD4230021D154364AD823002183
:100DF000D154354B20225A80344A334B5A60324BFF
:100E0000C8221A70304B20225A81314A2E4BDA60A8
:100E10002D4BC8221A722C4B20225A822D4A2A4B63
:100E20005A61294B88221A74274B20225A832A4A56
:100E3000254BDA61244B88221A76224AC0230D21E1
:100E4000D154204A8823FF21D1541E4A8023FF21F8
:100E5000D1541C4A98230021D1541A4A8C23FF21D3
:100E6000D154184A17498423CB5CDBB208210B43C9
:100E7000D9B28423D154134A12498423CB5CDBB208
:100E800004210B43D9B28423D1540E4A0D49842343
:100E9000CB5CDBB202210B43D9B28423D154094A83
:100EA00008498423CB5CDBB201210B43D9B28423F4
:100EB000D154BD4680BDC04638FBFF1FD0FAFF1F8E
:100EC00069FAFF1F0020074000FCFF1FB0FAFF1F58
:100ED0005CFBFF1F3CFBFF1F84FCFF1F80B500AFC6
:100EE0002A4A8023D35CDBB21A1C0123134002D0B0
:100EF000FFF75CFF48E0254A8023D35CDBB21A1C75
:100F00000423134003D0214A80230421D1541F4AD3
:100F10008023D35CDBB2DBB25BB2002B01DAFFF7DC
:100F200021FF1A4A8023D35CDBB21A1C082313402A
:100F300015D0164A15499423CB5CDBB202210B4332
:100F4000D9B29423D154FFF773FE104A0F4980237E
:100F5000CB5CDBB208210B43D9B28023D1540B4ABE
:100F60008023D35CDBB21A1C1023134009D0074A3C
:100F700006498023CB5CDBB210210B43D9B280231E
:100F8000D154024A8023D35CBD4680BD0020074077
:100F900080B500AF0F4B00221A70FFF7FBFA0E4B23
:100FA0000D4AD269C02189000A43DA610B4B9622AF
:100FB00092011A60094B00221A71084B00225A71E3
:100FC000064B08229A71064B181C8021FFF7B4FAD1
:100FD000BD4680BD00F2FF1F00B0044004FDFF1FAE
:100FE0000CFDFF1F80B500AF2D4B1B78DBB21A1C28
:100FF0000223134019D02B4A2A499423CB5CDBB23D
:1010000002210B43D9B29423D154274B00221A70EA
:10101000264B01221A70FFF7BBFF214B1B78DBB276
:1010200002229343DAB21E4B1A701F4B1B78202BFF
:1010300015D0222B2CD0002B01D02FE004E0C0468D
:101040001B4B1B78012BF9D1184B1B78002B02D0BE
:10105000164B00221A70144B00221A701EE0154B1A
:101060001B781A1C0123134011D0124B1B7801224C
:101070009343DAB20F4B1A700F4B0020191CFFF785
:10108000F9FB002000210022FFF70AFB06E005E043
:10109000002000210022FFF703FBC046BD4680BDB3
:1010A00001F2FF1F0020074000F2FF1F50F0FF1F5A
:1010B0007CFBFF1F14FBFF1F04FDFF1F80B582B0E8
:1010C00000AFFB1D00221A70214B1B685B78212B9F
:1010D00011D004DC0A2B07D0202B13D031E0222BB7
:1010E00017D0AA2B1CD02CE01A4B0020191C01226F
:1010F000FFF7D6FA25E0184B0020191C0722FFF74E
:10110000CFFA1EE0154B20221A70FB1D01221A7027
:1011100017E0124B22221A70FB1D00221A7010E0F9
:101120000F4B181C8021FFF707FA0E4B1B7880220B
:1011300052421343DAB20B4B1A70094BFF221A705A
:10114000C046FB1D1B78181CBD4602B080BDC046C2
:1011500044FAFF1F15FBFF1F04FDFF1F00F2FF1FD6
:101160000CFDFF1F14FBFF1F80B500AF164B164A86
:101170005268802149040A435A60134B124A12688C
:10118000802109060A431A600F4B0F4A52688021DA
:10119000C9040A435A600C4B0B4A12688021C905E6
:1011A0000A431A60084B084A5268802189040A439E
:1011B0005A60054B044A1268802189050A431A6067
:1011C000FFF7E6FEBD4680BD0070044080B584B0E8
:1011D00000AF786001235B42FB60FFF703FF144B15
:1011E0001B781A1C082313401DD00320FFF77EFB39
:1011F000104B6222202199520E4B6022802199547B
:101200000B4B1B7808229343DAB2094B1A700A4B36
:101210000220191C0122FFF743FA074B1A787B685A
:101220001A700123FB60FB68181CBD4604B080BD2A
:1012300014FBFF1F00FCFF1FC4FCFF1F80B582B022
:1012400000AF78607B680B4A934201D901230CE020
:10125000094B7A681202120A013A5A60064B0022C0
:101260009A60054B07221A600023181CBD4602B085
:1012700080BDC046FFFFFF0010E000E080B582B0F7
:1012800000AF00F01DFE124B7B60124B3B6007E08D
:101290003B681A1D3A607A68111D796012681A60FD
:1012A0003A680D4B9A42F3D30C4B3B6004E03B6829
:1012B0001A1D3A6000221A603A68094B9A42F6D326
:1012C000084B181CFFF7BAFF00F08CF9FEE7C04688
:1012D0009825000000F0FF1FCCF0FF1F00F2FF1F59
:1012E0008CFDFF1F80BB000080B500AF00F01AFE30
:1012F000BD4680BD80B500AFFFF7F0FDBD4680BDA7
:1013000080B500AFFEE7C04680B500AF0E4A882327
:101310005B010021D1500C490B4A0C4BD358802261
:10132000D2001343094A8B50094B802252001A60A5
:10133000084B01229A60074B064A526901210A4371
:101340005A61BD4680BDC0460070044038100000A0
:1013500000A0044040F00F4080B582B000AF2049AB
:101360001F4A204BD3588022920013431D4A8B50B2
:101370001B491B4A1C4BD3588022D20013431A4AE4
:101380008B501749164A194BD3588022D204134365
:10139000164A8B50164B802292005A60144B8022C2
:1013A00092009A60134B134A526904210A435A610E
:1013B000114B18229A72C8237B600F4A7B681B0A64
:1013C000DBB21F210B40DBB213700B4B7A68D2B239
:1013D0005A70094B0C22DA70BD4602B080BDC0467F
:1013E00000700440381000003410000004100000A9
:1013F0000090044000F00F4000A0064080B500AF10
:101400003749374A374BD358802212011343354AA4
:101410008B50354B802292001A61334B8022920010
:101420005A61314B802292009A61304B2F4A5269A7
:1014300040210A435A612A49294A2D4BD358802218
:10144000D20313432A4A8B502A4A2A4BDB78DBB259
:101450001A210B43DBB2D370264A264B9B78DBB2B2
:1014600010210B43DBB29370224B40225A70214A69
:10147000204BDB78DBB240210B43DBB2D370184941
:10148000174A1D4BD358022213431B4A8B50144951
:10149000134A82235B01D358802252001A438223CD
:1014A0005B01CA50154A154B1B78DBB240210B403B
:1014B000DBB213701149114B1B78DBB26F22524221
:1014C0001343DBB20B700E4A82235B000D49D150EF
:1014D0000B4A86235B000C49D150BD4680BDC046F7
:1014E000007004403810000000B0044080F00F404D
:1014F00034100000006007403C1000000010024063
:1015000000800040066007408000526080B582B0D5
:1015100000AF78603960C046174A84235B00D25818
:1015200080239B041340F7D1134984235B0080225E
:101530005204CA5010497A6880235B00CA500E4991
:101540003B681B021A0A84235B00CA500A490A4AF4
:1015500086235B00D3588022D2051A4386235B0082
:10156000CA50064A054B9B78DBB220210B43DBB205
:101570009370BD4602B080BD00800040006007400F
:1015800080B500AF00F0DAFC021C074B1B68D31AD1
:10159000FA2B07D900F0D2FC021C034B1A60034B54
:1015A0000122DA60BD4680BDF0F8FF1F40F00F4019
:1015B00080B582B000AF7860094B1B79DBB21A1C92
:1015C0002023134006D0064BDB79DAB27B681A7011
:1015D000012301E001235B42181CBD4602B080BD1F
:1015E00000A0064080B588B000AF1E23FB18002283
:1015F0001A701D23FB1800221A7001235B42BB6185
:10160000FFF782FEFFF7FAFEFFF7A6FE8D4B8E4A2C
:10161000181C002100F037FD8C4ABD23DB00101C94
:10162000191C00F025FAFFF79FFDFFF7A9FF00F056
:10163000B7FB00F083FC021C854B1B68D31A322BCE
:101640000AD900F07BFC021C814B1A607D4B7E4A5C
:10165000181C111CFFF75AFFFB1D181CFFF7B6FDE5
:10166000031CBB61BB69013305D1FB1D181CFFF7CF
:101670009FFF031CBB61BB69013300D1E0E01E2367
:10168000FB181B78002B00D18CE0FB1D1B78672B0F
:1016900042D006DC0D2B0FD0622B4ED00A2B0BD084
:1016A00071E0722B27D002DC692B57D06BE0732BD3
:1016B0005BD0742B60D066E01E23FB1800221A70EA
:1016C0001F23FB181B780822BA180021D1540823C5
:1016D000FB181B786B2B0DD10823FB180133181C4A
:1016E00000210A2200F05AFD031CDBB2181C00F096
:1016F000DBF956E055E01E23FB1800221A70002388
:101700003B6000F009FA031C1A1C3B1C5A703B1C7E
:10171000181C00F0F3F944E01E23FB1800221A7095
:1017200000233B6000F0F8F9031C1A1C3B1C1A70E4
:101730003B1C181C00F0E2F933E01E23FB180022CA
:101740001A7000233B6000F0E7F9031C1A1C3B1CD5
:101750009A703B1C181C00F0D1F922E01E23FB18E4
:1017600000221A7000F0E2F91BE01E23FB18002291
:101770001A7000F00BFA14E01E23FB1800221A70F6
:1017800000F018FA0DE01F23FB181B781F22BA186F
:10179000591C11701A1CFB1D19780823FB18995449
:1017A000C0464DE01D23FB181B78002B2FD0FB1DDE
:1017B0001B780A2B01D00D2B04D11D23FB1800220E
:1017C0001A7023E0FB1D1B78181C00F007FA031E9B
:1017D0001BD01F23FB181B780F2B16D81F23FB18B9
:1017E0001B781F22BA18591C11701A1CFB1D19787E
:1017F0000823FB1899541F23FB181B780822BA18DA
:10180000101C191C00F0BAFAFFE7C04618E0FB1DD7
:101810001B78112B02D0122B09D011E01E23FB18CC
:1018200001221A701F23FB1800221A7008E01D23E2
:10183000FB1801221A701F23FB1800221A70C046E1
:10184000F3E6C04604F2FF1FEC06000008F3FF1F9A
:10185000F4F8FF1F80B588B000AFF860B9607A6017
:101860000023BB6158E000237B61FA68BB69D21892
:101870001E23FB1812781A701F23FB1800221A70FF
:101880001FE01E23FB181B785BB2002B04DA7B6978
:10189000062213437B6103E07B69042213437B61CF
:1018A0001E23FA181E23FB181B78DB1813707B69A4
:1018B000DB007B611F23FB181A781F23FB18013202
:1018C0001A701F23FB181B78072BDAD97B69DB08FA
:1018D0007B61BA69131C5B009B18BA68D318142289
:1018E000BA1892781A70BA69131C5B009B180133FE
:1018F000BA68D3181422BA1852781A70BA69131C2D
:101900005B009B180233BA68D3181422BA181278F5
:101910001A70BB690133BB61BA697B689A42A2D372
:10192000BD4608B080BDC04680B582B000AF021C85
:10193000FB1D1A70FB1D1A78394B1B689A420CD993
:10194000384B9B78013BDAB2364B9A70354B1B789B
:101950000133DAB2334B1A704DE0FB1D1B785B008C
:101960001A1E2F4B1B689A4201D9C04643E0FB1D4B
:101970001A78131C5B009B181A1E294B1B689A428D
:101980000CD9284B1B78013BDAB2264B1A70254B39
:101990005B780133DAB2234B5A702CE0FB1D1B78C5
:1019A0009B001A1E1E4B1B689A4201D9C04622E0BA
:1019B000FB1D1A78131C9B009B181A1E184B1B68E2
:1019C0009A420CD9174B5B78013BDAB2154B5A702F
:1019D000144B9B780133DAB2124B9A700BE0FB1D6B
:1019E0001A78131C5B009B185B001A1E0C4B1B68BB
:1019F0009A4200D9C0460A4B1B68591CFB1D1A7835
:101A0000131C5B009B185B00081C191C00F026FBD4
:101A10000B1C1A1C024B1A60BD4602B080BDC046AA
:101A20005CF0FF1F54F0FF1F80B582B000AF0023B1
:101A30007B600FE00B4B1A687B68D2180A4B111CB5
:101A40001A1C0923081C111C1A1C00F013FB7B68CC
:101A500009337B607B68054A9342EBDDBD4602B0EB
:101A600080BDC046F8F8FF1F70240000E7050000A5
:101A700080B582B000AF78603960084B7A681A6030
:101A8000074B3A681A60FFF7CFFF064B181C12216C
:101A900000F074F9BD4602B080BDC046F8F8FF1FE3
:101AA000FCF8FF1F7C24000080B582B000AF021C50
:101AB000FB1D1A700F4BFA1D12781A700E4B5B78D3
:101AC000002B03D00B4B1A780B4B5A700A4B1B7828
:101AD000002B03D0074B1A78074B1A70064B9B78E4
:101AE000002B03D0034B1A78034B9A70BD4602B00B
:101AF00080BDC0465AF0FF1F54F0FF1F80B582B072
:101B000000AF78607B681A68024B1A60BD4602B06D
:101B100080BDC04654F0FF1F80B500AF024B1B785C
:101B2000181CBD4680BDC0465AF0FF1F80B500AFEF
:101B3000124B1B785A1E9341DBB201225340DBB299
:101B40001A1C01231340DAB20C4B1A700B4B1B7892
:101B5000002B11D00A4B1B781A1C0A4B1A600A4B37
:101B600000221A60084B00225A70054B1A78064B67
:101B70001A70054B00229A70BD4680BD58F0FF1FB9
:101B80005AF0FF1F5CF0FF1F54F0FF1F80B500AF3D
:101B9000074B1B785A1E9341DBB201225340DBB244
:101BA0001A1C01231340DAB2014B1A70BD4680BDE6
:101BB00059F0FF1F80B500AF074B1B785A1E9341A9
:101BC000DBB201225340DBB21A1C01231340DAB20C
:101BD000014B1A70BD4680BD00F9FF1F80B582B071
:101BE00000AF021CFB1D1A70FB1D1B781F2B05D9B3
:101BF000FB1D1B787E2B01D8012300E000231A1C5B
:101C000001231340DBB2181CBD4602B080BDC046A4
:101C100080B586B000AFF860B9607A603B60FB6861
:101C2000181C0C2100F094F9031C1A1C5423534374
:101C30007B61BA68131C5B009B189B001A1C7B69B4
:101C40009B187B61BB680122134009D0FB68181CFC
:101C50000C2100F003FA0B1C1A1C0B239B1A05E045
:101C6000FB68181C0C2100F0F9F90B1C7A69D318D9
:101C70007B617A69131CDB009B18DA1C3B689A4273
:101C80000BD2396A7A69131CDB009B187A68D31867
:101C9000081C191C0322FFF7DDFDBD4606B080BD00
:101CA00090B587B002AFF860B9607A603B60B96800
:101CB000F8687A683C68044B0093231CFFF7A8FF80
:101CC000BD4605B090BDC0469024000090B58BB0D5
:101CD00002AFF8607A603B600B23FB180A1C1A7095
:101CE0000B23FB181B78203B1A1C131C9B009A1813
:101CF000214BD3187B610023FB6136E00023BB61DD
:101D00002DE0FB69042B08D9FA68FB69D018B96982
:101D10007A683B68FFF7C4FF1EE07A69FB69D31855
:101D20001B781A1CBB691A41131C012213400BD0EB
:101D3000FA68FB69D018B9697A683C683B6B009314
:101D4000231CFFF765FF07E0FA68FB69D018B96943
:101D50007A683B68FFF7A4FFBB690133BB61BB69CD
:101D6000062BCED9FB690133FB61FB69052BC5D975
:101D7000BD4609B090BDC046B821000080B582B014
:101D800000AF78603960044B7A681A60034B3A6898
:101D90001A60BD4602B080BD04F9FF1F08F9FF1F9D
:101DA00090B585B002AF00F0C9F8021C394B1B6832
:101DB000D31A642B6BD9384B1B78002B1DD000F045
:101DC000BDF8031C193B1A1C324B1A6000237B60C0
:101DD0000FE0324B19687A68131CDB009B18CB1894
:101DE0002F4A101C191C0322FFF734FD7B680133B6
:101DF0007B607B68A72BECDD26E000F09FF8021CDF
:101E0000244B1A6000237B6019E07A68131C5B0086
:101E10009B185B001A1C234B1B68D018224B1A68B6
:101E20007B68D31819781D4B1A68204B1C681C4B13
:101E30000093231CFFF74AFF7B6801337B607A68BD
:101E40001B4B1B689A42E0D31A4B1B78002B15D012
:101E5000144B1B685A1E134B1A60124B1B68DA177F
:101E60009B185340191C124B1A68131C5B009B18DB
:101E70005B00994202D90B4B18221A600E4B1B785B
:101E8000002B04D00D4B1B78181CFFF74DFDBD46F1
:101E900003B090BD0CF9FF1F00F9FF1FF8F8FF1FFA
:101EA00054F0FF1F60F0FF1F04F9FF1FFCF8FF1F35
:101EB00008F9FF1F59F0FF1F58F0FF1F5AF0FF1FCE
:101EC00080B500AF1249124BDB78DBB21F22134002
:101ED000DBB2602252421343DBB2CB700D490D4A94
:101EE0000D4BD358E0229343402213430A4A8B50B0
:101EF0000849084A094BD358802212011343074A64
:101F00008B50074BA822D200DA60BD4680BDC04688
:101F1000004006400070044004100000381000002B
:101F200000B0044080B500AF034B1B685A1C024B45
:101F30001A60BD4680BDC04610F9FF1F80B500AFD6
:101F4000024B1B68181CBD4680BDC04610F9FF1F20
:101F5000002243088B4274D303098B425FD3030AE8
:101F60008B4244D3030B8B4228D3030C8B420DD3FB
:101F7000FF22090212BA030C8B4202D31212090289
:101F800065D0030B8B4219D300E0090AC30B8B42C7
:101F900001D3CB03C01A5241830B8B4201D38B0375
:101FA000C01A5241430B8B4201D34B03C01A52411A
:101FB000030B8B4201D30B03C01A5241C30A8B425D
:101FC00001D3CB02C01A5241830A8B4201D38B0248
:101FD000C01A5241430A8B4201D34B02C01A5241EC
:101FE000030A8B4201D30B02C01A5241CDD2C3095E
:101FF0008B4201D3CB01C01A524183098B4201D3DA
:102000008B01C01A524143098B4201D34B01C01AC4
:10201000524103098B4201D30B01C01A5241C3083C
:102020008B4201D3CB00C01A524183088B4201D3AB
:102030008B00C01A524143088B4201D34B00C01A97
:102040005241411A00D20146524110467047FFE703
:1020500001B5002000F00CF802BDC0460029F7D001
:1020600003B5FFF775FF0EBC4243891A1847C046F7
:102070007047C046002310B5934203D0CC5CC454D3
:102080000133F9E710BD031C8218934202D0197086
:102090000133FAE770470000F0B51E1C3E4B87B0D5
:1020A0001B68171C02930B1C059004911C78029A64
:1020B0005D1C1219517808220A4001D02B1CF5E74B
:1020C0002D2C04D19D1C5C780123019304E0019226
:1020D0002B2C01D15C789D1C002E02D0102E0AD131
:1020E00054E0302C50D120222B789343582B46D1EA
:1020F00010266C7802350120311C4042FFF728FF82
:1021000003900120311C4042FFF7A8FF00228C46BB
:10211000131C029909194978480701D5303C07E09A
:102120000320084017D03721012800D02031641A3D
:10213000B44210DA511C0BD0039A934206D801D155
:10214000644503DC73430122E31801E0012252429B
:102150002C780135DDE7181C511C04D12223059988
:10216000101C0B6003E00199002900D05842002F99
:102170000FD0049B002A00D06B1E3B6009E0302486
:10218000002EB8D10826B6E70A26B4E7302CB2D123
:10219000A9E707B0F0BDC046C8F0FF1F38B5051C61
:1021A0000C1C131C034A291C1068221CFFF774FF27
:1021B00038BDC046C4F0FF1F000000000000005FF3
:1021C00000000007000700147F147F14242A7F2AD0
:1021D000122313086462364955225000050300009B
:1021E000001C2241000041221C00082A1C2A080869
:1021F000083E0808005030000008080808080030B1
:1022000030000020100804023E5149453E00427F44
:10221000400042615149462141454B311814127F1B
:102220001027454545393C4A4949300171090503A4
:102230003649494936064949291E0036360000000C
:1022400056360000000814224114141414144122BC
:102250001408000201510906324979413E7E1111EC
:10226000117E7F494949363E414141227F41412209
:102270001C7F494949417F090901013E41415132D1
:102280007F0808087F00417F41002040413F017FD7
:10229000081422417F404040407F0204027F7F04B7
:1022A00008107F3E4141413E7F090909063E4151E8
:1022B000215E7F09192946464949493101017F01BB
:1022C000013F4040403F1F2040201F7F2018207FBB
:1022D00063140814630304780403615149454300FF
:1022E000007F4141020408102041417F00000402A8
:1022F00001020440404040400001020400205454C8
:1023000054787F484444383844444420384444484E
:102310007F3854545418087E090102081454543C60
:102320007F0804047800447D40002040443D0000C4
:102330007F10284400417F40007C041804787C080A
:1023400004047838444444387C14141408081414E1
:10235000187C7C080404084854545420043F44402A
:10236000203C4040207C1C2040201C3C4030403C15
:1023700044281028440C5050503C4464544C4400B1
:102380000836410000007F000000413608000804C4
:1023900008100808082A1C08081C2A080800000061
:1023A0001201100102000020A2150FA50000010279
:1023B00003010000040309041403460072006500D1
:1023C00065007300630061006C0065001203550036
:1023D000530042002D0055004100520054000000FF
:1023E000120354004500530054005F0031002E00DA
:1023F0003000000009024300020100C0320904005D
:102400000001020201010524001001052401000160
:1024100004240200052406000107058103200002B0
:1024200009040100020A00000107058202200000E1
:10243000070503022000000020202020202020206B
:102440002020202020202020A20A0000B60A000020
:10245000B60A0000B60A0000B60A0000E40900004F
:10246000F6090000B60A0000940A0000540A0000B1
:1024700092492492492492492400000048617070D6
:10248000792048616C6C6F7765656E2120200000B3
:1024900000000000004300002020202020202020F9
:1024A0002028282828282020202020202020202004
:1024B0002020202020202020881010101010101024
:1024C000101010101010101004040404040404046C
:1024D00004041010101010101041414141414101FD
:1024E00001010101010101010101010101010101DC
:1024F00001010110101010101042424242424202EB
:1025000002020202020202020202020202020202AB
:102510000202021010101020000000000000000055
:1025200000000000000000000000000000000000AB
:10253000000000000000000000000000000000009B
:10254000000000000000000000000000000000008B
:10255000000000000000000000000000000000007B
:10256000000000000000000000000000000000006B
:10257000000000000000000000000000000000005B
:10258000000000000000000000000000000000004B
:08259000000000000000000043
:10259800B0FAFF1F5CFBFF1F3CFBFF1F84FCFF1F03
:1025A80048FAFF1F24FAFF1F90FAFF1FF4FAFF1FD3
:1025B800E4FCFF1F18FBFF1F6CFAFF1F80FBFF1FC7
:1025C800C4FCFF1F00FAFF1FA4FCFF1FD4FAFF1F63
:1025D800B4230000B8230000CC230000E02300004F
:1025E80001000000070000000101070007000000CB
:1025F80018000000000000000000000000000000BB
:1026080000000000000000000000000000000000C2
:1026180000000000952400000000000000000000F9
:1026280000000000000000000000000000000000A2
:102638000000000000000000000000000000000092
:102648000000000000000000000000000000000082
:0C2658000000000064F0FF1F9724000049
:0400000300000410E5
:00000001FF
