:10000000900500207D120000011300000113000084
:1000100000000000000000000000000000000000E0
:1000200000000000000000000000000001130000BC
:10003000000000000000000001130000E9120000B1
:100040000113000001130000011300000113000060
:100050000000000001130000011300000113000064
:100060000113000001130000011300000113000040
:100070000113000001130000011300000113000030
:100080000113000001130000011300000113000020
:100090000113000001130000011300000000000024
:1000A000F51200000113000001130000011300000D
:1000B0000113000000000000011300000113000004
:10040000FFFFFFFFFFFFFFFFFFFFFFFFFEFFFFFFFD
:1004100080B582B000AF78607B68202B25DC144863
:10042000134AC0235B00D2587B6812490B4004D5A5
:10043000013B202149420B430133191C01238B400E
:100440001A43C0235B00C250094A094B19687B68F4
:100450000848034004D5013B2020404203430133B8
:10046000181C012383400B431360BD4602B080BDBE
:1004700000E100E01F00008080B582B000AF021CE8
:10048000FB1D1A70FB1D1B78012B0DD0022B1FD0FA
:10049000002B32D11F491F4A1F4BD358A022D20232
:1004A00013431D4A8B5028E000F042F81949194ABD
:1004B000194BD358194A1340174A8B501549154AFE
:1004C000154BD3588022D2021343134A8B5014E0A9
:1004D0001049104A104BD358114A13400E4A8B5002
:1004E0000C490C4A0F4BD3588022920013430D4AFB
:1004F0008B500D4B802292005A610649054A0B4BE6
:10050000D3588022D2021343084A8B50BD4602B012
:1005100080BDC0460070044004100000FFFFFEFFD5
:10052000FFFFFBFF38100000009004403410000073
:1005300080B500AFBD4680BD80B582B000AF7860A9
:100540000A1CFB1C1A70FB1C1B78013B7A68D21832
:100550000A4B1A600A4B7A681A600A4BFA1C127826
:100560001A70094B7A681A60084B7A681A60084B4F
:1005700000221A70BD4602B080BDC04618FCFF1FA5
:1005800020FCFF1F29FCFF1F24FCFF1F1CFCFF1F7A
:1005900028FCFF1F80B500AF3C4B1A683C4B1A602B
:1005A0003C4B00221A700120FFF766FF1820FFF76E
:1005B0002FFF3949384A86235B00D35CDBB28022A7
:1005C00052421343DAB286235B00CA54C046324A11
:1005D00086235B00D35CDBB2DBB25BB2002BF6DBC5
:1005E0002D4A2E4B1B0AD9B29C23D1542A4A2B4B9D
:1005F0001B0CD9B2B023D154274A284B1B0ED9B2B9
:10060000B423D154244A24498023CB5CDBB2022199
:100610000B43D9B28023D1541F4A1F498423CB5C9A
:10062000DBB201210B43D9B28423D1541A4A1A49AF
:1006300080235B00CB5CDBB23F210B40D9B280232F
:100640005B00D154144A144986235B00CB5CDBB2B7
:1006500040210B43D9B286235B00D1540E4A0E4988
:100660009423CB5CDBB201210B43D9B29423D15448
:10067000094A094984235B00CB5CDBB210210B43A0
:10068000D9B284235B00D154BD4680BD00F0FF1F6A
:1006900044FEFF1F7CFFFF1F0020074000000020DA
:1006A00080B586B000AF3960111CFB1D021C1A70AA
:1006B000BB1D0A1C1A701023FB1800221A800F237E
:1006C000FB18FA1D12781A70FB1D1B78002B04D042
:1006D000FB1DFA1D127892001A70FB1DFA1D12788C
:1006E00002321A70FB1D1A785A4B9200D3587B6164
:1006F000594B1B781A1C0123134025D0574B3A68DD
:100700001A60574BBA1D12781A70564B1B68DB796A
:100710009BB21B0299B2534B1B689B799AB2102370
:10072000FB188A181A80BB1D1B789BB21022BA18BE
:1007300012889A4208D2FB1D1B78022B04D1494B28
:100740001B689A79464B1A70FB1D1B78464AD25C8F
:10075000434B1B789A4218D2FB1D1A781323FB18BF
:1007600041498A5C1A703E4B1A78FB1D1B783E4942
:10077000CB5CD31ADAB23A4B1A70374B1B78012292
:100780009343DAB2344B1A700EE01323FB18344A49
:1007900012781A70324B00221A702F4B1B780122EC
:1007A0001343DAB22C4B1A70FB1D1B781322BA18B4
:1007B000127891B22D4ADB00D3180A1C5A8009E046
:1007C0007B695A1C7A61254A1268501C23490860CB
:1007D00012781A701323FB181B781322BA18591EAB
:1007E0001170002BECD1224B1B781A1C0F23FB1825
:1007F0001B78DA40131C0122134015D0FB1D1A7818
:100800001A4BD2008821D1540F23FB181B780122E8
:100810009A40131CDBB2DB43DBB2154A127813405B
:10082000DAB2134B1A7012E0FB1D1A780F4BD2008C
:10083000C821D1540F23FB181B7801229A40131CA6
:10084000DAB20B4B1B781343DAB2094B1A70BD4670
:1008500006B080BD00F0FF1F38FFFF1F80000020A2
:1008600020FEFF1F44FEFF1F3C2E00000000002062
:10087000D0FEFF1F80B584B000AF021C3960FB1DA5
:100880001A70FB1D1A78FB1D01321A70FB1D1A78B5
:10089000144B9200D358FB60FB1D1B78124ADB00FF
:1008A000D3185A880B23FB181A70FB1D0B22BA1899
:1008B00012781A7007E03B685A1C3A60FA68511CBB
:1008C000F96012781A700B23FB181B780B22BA18E8
:1008D000591E1170002BEED1FB1D1B78181CBD4654
:1008E00004B080BD00F0FF1F0000002080B584B080
:1008F00000AF021CFB1D1A70FB1D1B789B000F4AEA
:10090000DB00D3185B881B0A9BB2D9B2FB1D1B7896
:100910009B000A4ADB00D3185B881B02DBB20A1C6F
:100920001343DAB20F23FB181A700F23FB181B783E
:100930009BB2181CBD4604B080BDC046000000201C
:1009400080B500AF1C4AC4230521D1541A4AC823DC
:100950000521D154184ACC230921D154164AD02359
:100960000121D154144AD4230121D154124AD8234D
:100970000121D154114B3022002199540F4B0022F8
:100980005A860F4A0D4B5A630C4B50220021995442
:100990000A4B5222002199520A4A084B5A65074BCA
:1009A000602280219954054B6222FF219952064A08
:1009B000024B5A66BD4680BD002007400000002063
:1009C00090FEFF1F6CFEFF1FC400002080B500AF2B
:1009D0003B4B1B685B78092B6DD89A00394BD318B9
:1009E0001B689F46002000210022FFF759FE364B6E
:1009F00003221A7062E0324B1B68DB78022B0AD0AC
:100A0000032B0FD0012B21D1304B0020191C1222B7
:100A1000FFF746FE1DE02E4B0020191C4322FFF776
:100A20003FFE16E0264B1B689B781A1C294B920050
:100A3000D158234B1B689B781A1C264B9200D35825
:100A40001B7800201A1CFFF72BFE02E000F060F973
:100A5000C04633E01A4B1B68DA78194B1B689B7849
:100A6000D318DAB21C4B1A70154B1B68DB781A1CB2
:100A7000134B1B689B78D318002B0AD0FFF760FF3D
:100A8000002000210022FFF70BFE0F4B01221A70FD
:100A900014E013E0104B0020191C0122FFF700FEA8
:100AA0000CE00E4B00221A800C4B0020191C022275
:100AB000FFF7F6FD02E000F02BF9C046BD4680BD11
:100AC00044FEFF1F4C2E00007CFFFF1FA42D0000E2
:100AD000F82D000040F0FF1F7DFFFF1F8CFEFF1F61
:100AE00090B583B000AF234B1B7801229343DAB259
:100AF000204B1A70204B1B681B781A1C1F231340B5
:100B0000012B10D0022B1FD0002B23D11A4B1B68B6
:100B10001B781A1C1F23134001D1FFF757FF174BF7
:100B200088221A7019E0FC1D00F0C8FA031C23701B
:100B3000FB1D1B78002B03D1104B88221A700CE090
:100B40000E4BC8221A7008E000F01CF80B4B8822EC
:100B50001A7002E000F0DCF8C046094A0849942304
:100B6000CB5CDBB220218B43D9B29423D154BD4658
:100B700003B090BDD0FEFF1F44FEFF1F0000002009
:100B80000020074080B582B000AF274B1B685B7820
:100B9000012B1ED0032B31D0002B00D041E0234B82
:100BA0001B781A1C204B1B685B79DA40131C01224E
:100BB000134004D0BB1D802252001A8002E0BB1DEE
:100BC00000221A80BB1D0020191C0222FFF768FDBD
:100BD00027E0154B1B685B791A1C01239340DBB29D
:100BE000DB43DBB2114A12781340DAB20F4B1A70B2
:100BF000002000210022FFF753FD12E00A4B1B6882
:100C00005B791A1C01239340DAB2084B1B7813431B
:100C1000DAB2064B1A70002000210022FFF740FDD7
:100C2000C046BD4602B080BD44FEFF1F68FEFF1FE8
:100C300080B582B000AF204A9023D35CDAB2FB1DAE
:100C400008210A401A701C4A9023D35CDAB2BB1DFB
:100C500012091A70BB1D1B78002B17D0FB1D1B78C7
:100C6000002B26D1BB1D1B789A00144BD20000210B
:100C7000D154BB1D1B7801229A40131CDAB2104BD1
:100C80001B781343DAB20E4B1A7012E0FB1D1B786F
:100C9000002B02D000F016F80BE0084B1B783C222A
:100CA0001340DBB2342B02D1FFF71AFF01E000F052
:100CB00047F8BD4602B080BD00200740000000207C
:100CC00014FFFF1F80B500AF0D4B1B78032B0FD116
:100CD0000C4A0D4B1B6899789823D154084B042279
:100CE0001A700A4B1B7801221343DAB2074B1A70B1
:100CF000002000210022FFF7D3FCBD4680BDC04686
:100D00007CFFFF1F0020074044FEFF1F38FFFF1F2E
:100D100080B500AF084A0849C023CB5CDBB2022192
:100D20000B43D9B2C023D154044B88221A70034B11
:100D300020225A80BD4680BD0020074000000020D0
:100D400080B500AF054B1B7801221343DAB2034B89
:100D50001A70034B88221A70BD4680BD14FFFF1F16
:100D60000000002080B500AF0F4AC023D35CDBB287
:100D70001A1C0223134009D00B4A0B49C023CB5C39
:100D8000DBB202218B43D9B2C023D1540649064AB3
:100D90008023D35CDBB2802252421343DAB2802339
:100DA000CA54BD4680BDC0460020074080B500AF94
:100DB000414BFF221A70414B00221A70404B002217
:100DC0001A70404AC4230021D1543E4AC82300214E
:100DD000D1543C4ACC230021D1543A4AD02300219B
:100DE000D154384AD4230021D154364AD823002183
:100DF000D154354B20225A80344A334B5A60324BFF
:100E0000C8221A70304B20225A81314A2E4BDA60A8
:100E10002D4BC8221A722C4B20225A822D4A2A4B63
:100E20005A61294B88221A74274B20225A832A4A56
:100E3000254BDA61244B88221A76224AC0230D21E1
:100E4000D154204A8823FF21D1541E4A8023FF21F8
:100E5000D1541C4A98230021D1541A4A8C23FF21D3
:100E6000D154184A17498423CB5CDBB208210B43C9
:100E7000D9B28423D154134A12498423CB5CDBB208
:100E800004210B43D9B28423D1540E4A0D49842343
:100E9000CB5CDBB202210B43D9B28423D154094A83
:100EA00008498423CB5CDBB201210B43D9B28423F4
:100EB000D154BD4680BDC04638FFFF1FD0FEFF1F86
:100EC00069FEFF1F0020074000000020B0FEFF1F4A
:100ED0005CFFFF1F3CFFFF1F8400002080B500AFB8
:100EE0002A4A8023D35CDBB21A1C0123134002D0B0
:100EF000FFF75CFF48E0254A8023D35CDBB21A1C75
:100F00000423134003D0214A80230421D1541F4AD3
:100F10008023D35CDBB2DBB25BB2002B01DAFFF7DC
:100F200021FF1A4A8023D35CDBB21A1C082313402A
:100F300015D0164A15499423CB5CDBB202210B4332
:100F4000D9B29423D154FFF773FE104A0F4980237E
:100F5000CB5CDBB208210B43D9B28023D1540B4ABE
:100F60008023D35CDBB21A1C1023134009D0074A3C
:100F700006498023CB5CDBB210210B43D9B280231E
:100F8000D154024A8023D35CBD4680BD0020074077
:100F900080B500AF0F4B00221A70FFF7FBFA0E4B23
:100FA0000D4AD269C02189000A43DA610B4B9622AF
:100FB00092011A60094B00221A71084B00225A71E3
:100FC000064B08229A71064B181C8021FFF7B4FAD1
:100FD000BD4680BD00F2FF1F00B0044004010020A8
:100FE0000C01002080B500AF2D4B1B78DBB21A1C22
:100FF0000223134019D02B4A2A499423CB5CDBB23D
:1010000002210B43D9B29423D154274B00221A70EA
:10101000264B01221A70FFF7BBFF214B1B78DBB276
:1010200002229343DAB21E4B1A701F4B1B78202BFF
:1010300015D0222B2CD0002B01D02FE004E0C0468D
:101040001B4B1B78012BF9D1184B1B78002B02D0BE
:10105000164B00221A70144B00221A701EE0154B1A
:101060001B781A1C0123134011D0124B1B7801224C
:101070009343DAB20F4B1A700F4B0020191CFFF785
:10108000F9FB002000210022FFF70AFB06E005E043
:10109000002000210022FFF703FBC046BD4680BDB3
:1010A00001F2FF1F0020074000F2FF1F50F0FF1F5A
:1010B0007CFFFF1F14FFFF1F0401002080B582B0DA
:1010C00000AFFB1D00221A70214B1B685B78212B9F
:1010D00011D004DC0A2B07D0202B13D031E0222BB7
:1010E00017D0AA2B1CD02CE01A4B0020191C01226F
:1010F000FFF7D6FA25E0184B0020191C0722FFF74E
:10110000CFFA1EE0154B20221A70FB1D01221A7027
:1011100017E0124B22221A70FB1D00221A7010E0F9
:101120000F4B181C8021FFF707FA0E4B1B7880220B
:1011300052421343DAB20B4B1A70094BFF221A705A
:10114000C046FB1D1B78181CBD4602B080BDC046C2
:1011500044FEFF1F15FFFF1F0401002000F2FF1FC8
:101160000C01002014FFFF1F80B500AF164B164A7C
:101170005268802149040A435A60134B124A12688C
:10118000802109060A431A600F4B0F4A52688021DA
:10119000C9040A435A600C4B0B4A12688021C905E6
:1011A0000A431A60084B084A5268802189040A439E
:1011B0005A60054B044A1268802189050A431A6067
:1011C000FFF7E6FEBD4680BD0070044080B584B0E8
:1011D00000AF786001235B42FB60FFF703FF144B15
:1011E0001B781A1C082313401DD00320FFF77EFB39
:1011F000104B6222202199520E4B6022802199547B
:101200000B4B1B7808229343DAB2094B1A700A4B36
:101210000220191C0122FFF743FA074B1A787B685A
:101220001A700123FB60FB68181CBD4604B080BD2A
:1012300014FFFF1F00000020C400002080B582B012
:1012400000AF78607B680B4A934201D901230CE020
:10125000094B7A681202120A013A5A60064B0022C0
:101260009A60054B07221A600023181CBD4602B085
:1012700080BDC046FFFFFF0010E000E080B582B0F7
:1012800000AF00F019FF124B7B60124B3B6007E090
:101290003B681A1D3A607A68111D796012681A60FD
:1012A0003A680D4B9A42F3D30C4B3B6004E03B6829
:1012B0001A1D3A6000221A603A68094B9A42F6D326
:1012C000084B181CFFF7BAFF00F0ECF9FEE7C04628
:1012D000DC2F000000F0FF1FD0F0FF1F00F2FF1F07
:1012E0009001002080BB000080B500AF00F016FF29
:1012F000BD4680BD80B500AFFFF7F0FDBD4680BDA7
:1013000080B500AFFEE7C04680B584B000AF78601E
:10131000114B1B68002B02D10F4B104A1A600E4B69
:101320001B68FB600C4B1A687B68D2180C4B9A4206
:1013300007D900F09BFF031C0C221A6001235B42BB
:1013400006E0054B1A687B68D218034B1A60FB68ED
:10135000181CBD4604B080BDE4FBFF1F90050020B3
:101360009009002080B500AF0E4A88235B01002160
:10137000D1500C490B4A0C4BD3588022D200134356
:10138000094A8B50094B802252001A60084B0122F7
:101390009A60074B064A526901210A435A61BD46C9
:1013A00080BDC046007004403810000000A004401A
:1013B00040F00F4080B582B000AF20491F4A204B5B
:1013C000D3588022920013431D4A8B501B491B4A5D
:1013D0001C4BD3588022D20013431A4A8B50174912
:1013E000164A194BD3588022D2041343164A8B5005
:1013F000164B802292005A60144B802292009A6011
:10140000134B134A526904210A435A61114B1822A3
:101410009A72C8237B600F4A7B681B0ADBB21F21CC
:101420000B40DBB213700B4B7A68D2B25A70094B87
:101430000C22DA70BD4602B080BDC0460070044088
:101440003810000034100000041000000090044028
:1014500000F00F4000A0064080B500AF3749374A82
:10146000374BD358802212011343354A8B50354BEA
:10147000802292001A61334B802292005A61314BD4
:10148000802292009A61304B2F4A526940210A43D0
:101490005A612A49294A2D4BD3588022D20313433B
:1014A0002A4A8B502A4A2A4BDB78DBB21A210B439B
:1014B000DBB2D370264A264B9B78DBB210210B435C
:1014C000DBB29370224B40225A70214A204BDB78CA
:1014D000DBB240210B43DBB2D3701849174A1D4BD6
:1014E000D358022213431B4A8B501449134A8223B8
:1014F0005B01D358802252001A4382235B01CA50F9
:10150000154A154B1B78DBB240210B40DBB2137040
:101510001149114B1B78DBB26F2252421343DBB2ED
:101520000B700E4A82235B000D49D1500B4A862373
:101530005B000C49D150BD4680BDC04600700440E0
:101540003810000000B0044080F00F40341000005C
:10155000006007403C100000001002400080004086
:10156000066007408000526080B582B000AF7860AE
:101570003960C046174A84235B00D25880239B04FD
:101580001340F7D1134984235B0080225204CA50D0
:1015900010497A6880235B00CA500E493B681B02E1
:1015A0001A0A84235B00CA500A490A4A86235B0050
:1015B000D3588022D2051A4386235B00CA50064ABC
:1015C000054B9B78DBB220210B43DBB29370BD4609
:1015D00002B080BD0080004000600740B0B500AFA1
:1015E00000F0A8FD031C181C124900F0ADFD031CFF
:1015F000181C0C2100F02EFE0B1C1D1C00F09AFD87
:10160000031C181C9623990000F09EFD031C181C57
:101610003C2100F01FFE0B1C1C1C074A074B101C32
:10162000191C2A1C231C00F039FE034B181CBD4654
:10163000B0BDC046A08C000054F0FF1F742E000007
:1016400080B500AF00F076FD021C074B1B68D31A73
:10165000FA2B07D900F06EFD021C034B1A60034BF6
:101660000122DA60BD4680BDE8FBFF1F40F00F405D
:1016700080B582B000AF7860094B1B79DBB21A1CD1
:101680002023134006D0064BDB79DAB27B681A7050
:10169000012301E001235B42181CBD4602B080BD5E
:1016A00000A0064080B58AB000AF2623FB180022B8
:1016B0001A702523FB1800221A7001235B423B623B
:1016C0001F23FB1800221A701E23FB1800221A7019
:1016D0001D23FB1800221A70FFF744FEFFF7BCFE23
:1016E000FFF768FEBA4A9E231B01101C00211A1C3A
:1016F00000F0CBFDB74BB84A181C111C00F07EFA65
:10170000FFF76CFF031C181C042100F0F1FB002004
:1017100000F0FEFAFFF728FDFFF792FF00F0FAFB5A
:1017200000F008FD021CAD4B1B68D31A322B12D9F6
:1017300000F000FD021CA94B1A60A54A9E231B0164
:10174000101C191CFFF710FFFFF748FF031C181CA3
:10175000042100F0CDFB0B23FB18181CFFF736FD0E
:10176000031C3B623B6A013306D10B23FB18181C98
:10177000FFF77EFF031C3B623B6A013300D126E189
:101780002623FB181B78002B00D1CEE00B23FB187F
:101790001B78672B43D006DC0D2B10D0622B4FD06B
:1017A0000A2B0CD0B1E0722B28D002DC692B58D068
:1017B000ABE0732B71D0742B00D18AE0A5E0262317
:1017C000FB1800221A702723FB181B780C22BA186A
:1017D0000021D1540C23FB181B786B2B0DD10C234B
:1017E000FB180133181C00210A2200F0FBFD031C2A
:1017F000DBB2181C00F01EFA96E095E02623FB18D9
:1018000000221A7000237B6000F04CFA031C1A1CA3
:101810003B1D5A703B1D181C00F036FA84E026234D
:10182000FB1800221A7000237B6000F03BFA031CB7
:101830001A1C3B1D1A703B1D181C00F025FA73E0A2
:101840002623FB1800221A7000237B6000F02AFA7E
:10185000031C1A1C3B1D9A703B1D181C00F014FA47
:1018600062E02623FB1800221A701D23FB181B7848
:101870005A1E9341DBB201225340DBB21A1C1D23D6
:10188000FB181A701A7801210A401A701D23FB18E0
:101890001B78181C00F010FA46E02623FB180022E3
:1018A0001A701F23FB181B785A1E9341DBB20122CA
:1018B0005340DBB21A1C1F23FB181A701A7801213F
:1018C0000A401A701F23FB181B78181C00F020FA1E
:1018D0002AE02623FB1800221A701E23FB181B780F
:1018E0005A1E9341DBB201225340DBB21A1C1E2365
:1018F000FB181A701A7801210A401A701E23FB186F
:101900001B78181C00F014FA0EE02723FB181B7834
:101910002722BA18591C11701A1C0B23FB181978AE
:101920000C23FB189954C04651E02523FB181B7863
:10193000002B32D00B23FB181B780A2B01D00D2B68
:1019400004D12523FB1800221A7025E00B23FB1875
:101950001B78181C00F0FCF9031E1CD02723FB1871
:101960001B780F2B17D82723FB181B782722BA18B0
:10197000591C11701A1C0B23FB1819780C23FB1827
:1019800099542723FB181B780C22BA18101C191C19
:1019900000F0AEFAFFE7C04619E00B23FB181B78F6
:1019A000112B02D0122B09D011E02623FB180122A3
:1019B0001A702723FB1800221A7008E02523FB1851
:1019C00001221A702723FB1800221A70C046A3E6D2
:1019D00004F2FF1F08F3FF1FDC080000ECFBFF1FF1
:1019E00080B588B000AFF860B9607A600023BB6151
:1019F00058E000237B61FA68BB69D2181E23FB18EC
:101A000012781A701F23FB1800221A701FE01E2381
:101A1000FB181B785BB2002B04DA7B6906221343A8
:101A20007B6103E07B69042213437B611E23FA1868
:101A30001E23FB181B78DB1813707B69DB007B61AE
:101A40001F23FB181A781F23FB1801321A701F235B
:101A5000FB181B78072BDAD97B69DB087B61BA6935
:101A6000131C5B009B18BA68D3181422BA1892781A
:101A70001A70BA69131C5B009B180133BA68D3183B
:101A80001422BA1852781A70BA69131C5B009B189A
:101A90000233BA68D3181422BA1812781A70BB69C4
:101AA0000133BB61BA697B689A42A2D3BD4608B0D4
:101AB00080BDC04680B582B000AF021CFB1D1A700D
:101AC000FB1D1A78394B1B689A420CD9384B9B780E
:101AD000013BDAB2364B9A70354B1B780133DAB2E0
:101AE000334B1A704DE0FB1D1B785B001A1E2F4B09
:101AF0001B689A4201D9C04643E0FB1D1A78131CAB
:101B00005B009B181A1E294B1B689A420CD9284B64
:101B10001B78013BDAB2264B1A70254B5B780133F8
:101B2000DAB2234B5A702CE0FB1D1B789B001A1E67
:101B30001E4B1B689A4201D9C04622E0FB1D1A7851
:101B4000131C9B009B181A1E184B1B689A420CD939
:101B5000174B5B78013BDAB2154B5A70144B9B78EC
:101B60000133DAB2124B9A700BE0FB1D1A78131C8A
:101B70005B009B185B001A1E0C4B1B689A4200D935
:101B8000C0460A4B1B68591CFB1D1A78131C5B00CE
:101B90009B185B00081C191C00F05CFB0B1C1A1C3A
:101BA000024B1A60BD4602B080BDC04664F0FF1F04
:101BB0005CF0FF1F80B582B000AF00237B600FE0B8
:101BC0000B4B1A687B68D2180A4B111C1A1C09238C
:101BD000081C111C1A1C00F04FFB7B6809337B604A
:101BE0007B68054A9342EBDDBD4602B080BDC0462E
:101BF000F0FBFF1F802E0000DB08000080B582B0E4
:101C000000AF78603960084B7A681A60074B3A6811
:101C10001A60FFF7CFFF064B181C122100F068F97D
:101C2000BD4602B080BDC046F0FBFF1FF4FBFF1FA6
:101C30008C2E000080B582B000AF021CFB1D1A7014
:101C40000F4BFA1D12781A700E4B5B78002B03D0E5
:101C50000B4B1A780B4B5A700A4B1B78002B03D096
:101C6000074B1A78074B1A70064B9B78002B03D052
:101C7000034B1A78034B9A70BD4602B080BDC04634
:101C800062F0FF1F5CF0FF1F80B582B000AF78608C
:101C90007B681A68024B1A60BD4602B080BDC04620
:101CA0005CF0FF1F80B500AF024B1B78181CBD46CF
:101CB00080BDC04662F0FF1F80B582B000AF021C3D
:101CC000FB1D1A700E4BFA1D12781A700C4B1B7804
:101CD000002B11D00B4B1B781A1C0B4B1A600B4BB3
:101CE00000221A60094B00225A70064B1A78074BE3
:101CF0001A70064B00229A70BD4602B080BDC046E5
:101D000060F0FF1F62F0FF1F64F0FF1F5CF0FF1F19
:101D100080B582B000AF021CFB1D1A70034BFA1D88
:101D200012781A70BD4602B080BDC04661F0FF1F38
:101D300080B582B000AF021CFB1D1A70034BFA1D68
:101D400012781A70BD4602B080BDC046F8FBFF1F76
:101D500080B582B000AF021CFB1D1A70FB1D1B7802
:101D60001F2B05D9FB1D1B787E2B01D8012300E01A
:101D700000231A1C01231340DBB2181CBD4602B01D
:101D800080BDC04680B586B000AFF860B9607A60AB
:101D90003B60FB68181C0C2100F0D6F9031C1A1CD0
:101DA000542353437B61BA68131C5B009B189B0050
:101DB0001A1C7B699B187B61BB680122134009D008
:101DC000FB68181C0C2100F045FA0B1C1A1C0B2395
:101DD0009B1A05E0FB68181C0C2100F03BFA0B1C59
:101DE0007A69D3187B617A69131CDB009B18DA1CB3
:101DF0003B689A420BD2396A7A69131CDB009B1844
:101E00007A68D318081C191C0322FFF7E9FDBD46A8
:101E100006B080BD90B587B002AFF860B9607A6057
:101E20003B60B968F8687A683C68044B0093231CEF
:101E3000FFF7A8FFBD4605B090BDC046A02E00002C
:101E400090B58BB002AFF8607A603B600B23FB1853
:101E50000A1C1A700B23FB181B78203B1A1C131C3E
:101E60009B009A18214BD3187B610023FB6136E05D
:101E70000023BB612DE0FB69042B08D9FA68FB69DC
:101E8000D018B9697A683B68FFF7C4FF1EE07A6929
:101E9000FB69D3181B781A1CBB691A41131C012259
:101EA00013400BD0FA68FB69D018B9697A683C68AE
:101EB0003B6B0093231CFFF765FF07E0FA68FB69A3
:101EC000D018B9697A683B68FFF7A4FFBB69013392
:101ED000BB61BB69062BCED9FB690133FB61FB6992
:101EE000052BC5D9BD4609B090BDC046BC2B00002E
:101EF00080B582B000AF78603960044B7A681A60B0
:101F0000034B3A681A60BD4602B080BDFCFBFF1F60
:101F100000FCFF1F90B585B002AF00F00BF9021C6A
:101F20005A4B1B68D31A642B00D8ABE0584B1B7874
:101F3000002B1DD000F0FEF8031C193B1A1C534B5C
:101F40001A6000237B600FE0524B19687A68131CFB
:101F5000DB009B18CB18504A101C191C0322FFF7FA
:101F60003FFD7B6801337B607B68FB2BECDD66E02B
:101F700000F0E0F8021C454B1A60484B05221A603D
:101F800000237B6019E07A68131C5B009B185B00E0
:101F90001A1C424B1B68D018414B1A687B68D31837
:101FA00019783C4B1A683F4B1C683B4B0093231C31
:101FB000FFF746FF7B6801337B607B68012BE2DD26
:101FC0001AE07A68131C5B009B185B001A1C334BE9
:101FD0001B68D318981C324B1A687B68D318197881
:101FE0002C4B1A682F4B1C682B4B0093231CFFF7BC
:101FF00027FF7B6801337B607A682B4B1B689A4212
:10200000DFD3264B1B680C33191C224B1A68254B57
:102010001C68214B0093081C0221231CFFF7B2FE11
:102020001E4B1B680C33191C1A4B1A681D4B1C687D
:10203000194B0093081C0421231CFFF7A3FE1B4B24
:102040001B78002B15D0154B1B685A1E134B1A60BA
:10205000124B1B68DA179B185340191C124B1A6855
:10206000131C5B009B185B00994202D90B4B242286
:102070001A600F4B1B78002B04D00E4B1B78181CDA
:10208000FFF718FDBD4603B090BDC04604FCFF1F1E
:10209000F8FBFF1FF0FBFF1F5CF0FF1F08FCFF1F9A
:1020A000FCFBFF1FF4FBFF1F00FCFF1F61F0FF1F85
:1020B00060F0FF1F62F0FF1F80B500AF1249124BA6
:1020C000DB78DBB21F221340DBB2602252421343A3
:1020D000DBB2CB700D490D4A0D4BD358E022934330
:1020E000402213430A4A8B500849084A094BD358E7
:1020F000802212011343074A8B50074BA822D200BB
:10210000DA60BD4680BDC046004006400070044015
:10211000041000003810000000B0044080B500AF8B
:10212000034B1B685A1C024B1A60BD4680BDC0465B
:102130000CFCFF1F80B500AF024B1B68181CBD468E
:1021400080BDC0460CFCFF1F002243088B4274D3A5
:1021500003098B425FD3030A8B4244D3030B8B42A8
:1021600028D3030C8B420DD3FF22090212BA030CB1
:102170008B4202D31212090265D0030B8B4219D392
:1021800000E0090AC30B8B4201D3CB03C01A5241B2
:10219000830B8B4201D38B03C01A5241430B8B42FA
:1021A00001D34B03C01A5241030B8B4201D30B03E3
:1021B000C01A5241C30A8B4201D3CB02C01A52410A
:1021C000830A8B4201D38B02C01A5241430A8B42CD
:1021D00001D34B02C01A5241030A8B4201D30B02B6
:1021E000C01A5241CDD2C3098B4201D3CB01C01AD0
:1021F000524183098B4201D38B01C01A52414309DA
:102200008B4201D34B01C01A524103098B4201D3C7
:102210000B01C01A5241C3088B4201D3CB00C01A34
:10222000524183088B4201D38B00C01A52414308AC
:102230008B4201D34B00C01A5241411A00D20146D1
:10224000524110467047FFE701B5002000F00CF83E
:1022500002BDC0460029F7D003B5FFF775FF0EBCDD
:102260004243891A1847C0467047C046014B186858
:102270007047C046C8F0FF1F002310B5934203D03B
:10228000CC5CC4540133F9E710BD031C821893429F
:1022900002D019700133FAE7704700000EB410B590
:1022A0009DB002A9029008610B48822488604861B1
:1022B000012040421FABC881084804CBA40000683D
:1022C00001938C8100F0FCF80023029A13701DB07A
:1022D00010BC08BC03B01847FFFFFF7FC8F0FF1F0A
:1022E000F0B51E1C3E4B87B01B68171C02930B1CDD
:1022F000059004911C78029A5D1C121951780822ED
:102300000A4001D02B1CF5E72D2C04D19D1C5C78D4
:102310000123019304E001922B2C01D15C789D1CD8
:10232000002E02D0102E0AD154E0302C50D12022A1
:102330002B789343582B46D110266C780235012018
:10234000311C4042FFF700FF03900120311C404246
:10235000FFF780FF00228C46131C02990919497867
:10236000480701D5303C07E00320084017D037214B
:10237000012800D02031641AB44210DA511C0BD06D
:10238000039A934206D801D1644503DC73430122CA
:10239000E31801E0012252422C780135DDE7181CD8
:1023A000511C04D122230599101C0B6003E00199F4
:1023B000002900D05842002F0FD0049B002A00D0E3
:1023C0006B1E3B6009E03024002EB8D10826B6E72A
:1023D0000A26B4E7302CB2D1A9E707B0F0BDC04659
:1023E000CCF0FF1F38B5051C0C1C131C034A291C1C
:1023F0001068221CFFF774FF38BDC046C8F0FF1FED
:10240000F0B58E6885B0071C0C1C03920193B34293
:1024100045D390238A89DB001A423DD00325096900
:10242000236801985B1A029363695D43EB0F5D19A2
:10243000029B6D1001331B189D4200D21D1C381CDD
:1024400053050FD5291C00F01DFB061E13D0029A60
:102450002169FFF711FFA289184B13408022134313
:10246000A38111E02A1C00F065FB061E0CD1381C6C
:10247000216900F0C1FA0C23402201203B60A389AE
:1024800040421343A38117E0029B2661F6182660A1
:102490006561019EED1AA560019BB34200D2019EC9
:1024A000321C2068039900F092FA0020A3689B1B5D
:1024B000A36023689E19266005B0F0BD7FFBFFFF77
:1024C000F0B59FB0029005938B890E1C171C1B065C
:1024D00010D50B69002B0DD1402100F0D3FA3060EC
:1024E0003061002804D10C23029A01381360D0E037
:1024F00040237361002306AD6B6120336B7610338C
:10250000AB763C1C2378002B03D1E31B049312D041
:1025100003E0252BF9D00134F4E7049B0298311C29
:102520003A1CFFF76DFF431C00D1ACE06A69049BC5
:10253000944663446B612378002B00D1A3E0012211
:10254000002352426A6002A95432521801342B60AF
:10255000EB60AB601370AB654F4F2178381C0522E0
:1025600000F02AFA002808D0C01B01278740381C39
:102570002B68013418432860EEE72B68DA0604D58F
:102580005322202102A8121811701A0704D55322D1
:102590002B2102A81218117022782A2A01D0099B37
:1025A0000EE0059A111D12680591002A01DB0992BF
:1025B00004E05242EA60022213432B60013409E036
:1025C0002278303A092A04D80A214B4301349B1857
:1025D000F6E7099323782E2B18D163782A2B09D19B
:1025E000059B02341A1D1B680592002B0DDA01238E
:1025F0005B420AE0002301342278303A092A04D8E9
:102600000A214B4301349B18F6E70793234F2178A7
:10261000381C032200F0D0F9002807D0C01B402747
:102620008740381C2B6801341843286021781C48E7
:102630000622671C297600F0BFF9002812D0194B3A
:10264000002B06D10722059B0733934308330593DC
:1026500014E005AB00930298291C321C124B00E0D9
:1026600000BF07E005AB00930298291C321C0E4BFB
:1026700000F08AF80390039B013304D06B69039A3E
:102680009B186B613DE7B3890B985B0601D5012070
:1026900040421FB0F0BDC046A82F0000AE2F000082
:1026A000B22F00000000000001240000F7B5171C45
:1026B00001930A698B6800900C1C934200DA131C8A
:1026C000221C3B6043321278002A01D001333B6068
:1026D00023689B0602D53B6802333B6006252368CE
:1026E0001D401ED0231C43331B785A1E9341226881
:1026F00092061CD53020E1184031C870211C5A1CAC
:1027000045310978A21840320233D1700FE0221C03
:102710000123009801991932089EB047431C0ED03E
:102720000135E3683A689B1A9D42F0DBDAE7221C28
:10273000009801994332089DA847431C02D101200B
:10274000404220E006232068E1683A680340002503
:10275000042B03D18D1AEB43DB171D40A3682269BC
:10276000934201DD9B1AED180027AF420ADA221CC2
:102770000123009801991A32089EB047431CDED00D
:102780000137F2E70020FEBDF0B58BB006920A1CBF
:1027900043320793059004920A7E0C1C109B6E2A0C
:1027A00000D1A8E011D8632A22D009D8002A00D18C
:1027B000B2E0582A00D0C2E045310A707C4A4FE0AE
:1027C000642A1DD0692A1BD0B9E0732A00D1A7E082
:1027D00009D86F2A29D0702A00D0B0E020220968D9
:1027E0000A43226037E0752A1FD0782A33D0A6E04A
:1027F0000E1C1A684236111D196013683370A1E06F
:1028000021681A68080606D4490604D5111D196006
:102810000023D55E02E0111D19601568002D3BDA1A
:102820002D23049A6D42137036E021681A68080659
:1028300006D4490604D51568111D1960ADB202E031
:10284000111D196015685A4B227E03930A276F2ABF
:102850001DD108271BE0221C782145321170554AF2
:1028600019680392081D226818600D68100602D4CA
:10287000500600D5ADB2D30702D520231A432260FB
:102880001027002D03D1202322689A432260231CA5
:10289000002243331A7002E00A27454B0393636812
:1028A000A360002B03DB0422216891432160002DEB
:1028B00002D1049E002B0ED0049E281C391CFFF769
:1028C000C9FC039B013E5B5C281C3370391CFFF77D
:1028D0003BFC051EF1D1082F09D12368DB0706D583
:1028E00063682269934202DC3023013E3370049B0B
:1028F0009B1B23612BE009681A68080607D4490668
:1029000005D5111D19601368A28A1A8004E0111DF3
:102910001960136862691A600023049E236116E03F
:102920001A68111D196016680021301C626800F0D9
:1029300043F8002801D0801B6060636803E0261C18
:1029400042363270012323610023049A1370079BDF
:1029500005980093211C069B09AAFFF7A7FE431CBC
:1029600002D10120404221E0236905980699321CDA
:10297000079DA847431CF4D023689B0705D4099BF7
:10298000E068984212DA181C10E00025E368099A02
:102990009B1A9D42F3DA221C0123059806991932ED
:1029A000079EB047431CDCD00135EFE70BB0F0BD0C
:1029B000B92F0000CA2F0000C9B28218904204D07B
:1029C00003788B4202D00130F8E70020704710B541
:1029D000814208D28B18984205D29B1A013A09D33A
:1029E000995C8154FAE70023934203D0CC5CC45431
:1029F0000133F9E710BD000030B500293ED004399D
:102A00000B68002B00DAC9181D4A1368141C002B30
:102A100002D14B60116031E099420DD208680A186A
:102A20009A4203D11368C3180B6053684B6021604E
:102A300024E08A4203D8131C5A68002AF9D11D6881
:102A40005C198C420BD109686918581819609042BA
:102A500014D110685268091819605A600EE08C424F
:102A600002D90C23036009E008680C18944203D1D2
:102A700014685268001908604A60596030BDC04649
:102A800014FCFF1F032370B5CC1C9C430834051CA9
:102A90000C2C01D20C2405E0002C03DA0C230020BE
:102AA0002B6042E08C42F9D3204A1368101C191C99
:102AB000002913D00A68121B0DD40B2A02D90A6010
:102AC0008B181FE08B4202D15A6802601BE04A68F3
:102AD0005A600B1C17E00B1C4968E9E7144E336879
:102AE000002B03D1281C00F04BF83060281C211C5F
:102AF00000F046F8031C421CD0D00322C61C9643AB
:102B000086420AD11C60181C07210B301A1D88430D
:102B1000821A0AD05142995007E0311A281C00F05D
:102B20002FF8431CBAD0331CECE770BD14FCFF1F18
:102B300010FCFF1FF8B5061C0C1C151C002904D145
:102B4000111CFFF79FFF041C18E0002A03D1FFF7B8
:102B500053FF2C1C12E000F025F8A8420ED2301CC6
:102B6000291CFFF78FFF071E07D0211C2A1CFFF727
:102B700083FB301C211CFFF73FFF3C1C201CF8BDD1
:102B800038B50023064C051C081C2360FEF7BCFB6F
:102B9000431C03D12368002B00D02B6038BDC046F6
:102BA0008C0100200B1F1A68101F002A04DA8918F4
:102BB00004390B68D018043870470000000000008A
:102BC0000000005F00000007000700147F147F145E
:102BD000242A7F2A122313086462364955225000A2
:102BE00005030000001C2241000041221C00082AAD
:102BF0001C2A0808083E0808005030000008080891
:102C00000808003030000020100804023E514945F9
:102C10003E00427F400042615149462141454B31CF
:102C20001814127F1027454545393C4A494930015F
:102C3000710905033649494936064949291E0036B6
:102C40003600000056360000000814224114141407
:102C50001414412214080002015109063249794135
:102C60003E7E1111117E7F494949363E4141412244
:102C70007F4141221C7F494949417F090901013EA9
:102C8000414151327F0808087F00417F41002040C8
:102C9000413F017F081422417F404040407F0204B1
:102CA000027F7F0408107F3E4141413E7F090909B0
:102CB000063E4151215E7F0919294646494949315D
:102CC00001017F01013F4040403F1F2040201F7F06
:102CD0002018207F631408146303047804036151EF
:102CE00049454300007F4141020408102041417FD3
:102CF0000000040201020440404040400001020480
:102D00000020545454787F48444438384444442084
:102D1000384444487F3854545418087E0901020846
:102D20001454543C7F0804047800447D4000204043
:102D3000443D00007F10284400417F40007C04187F
:102D400004787C0804047838444444387C1414140F
:102D500008081414187C7C080404084854545420AF
:102D6000043F4440203C4040207C1C2040201C3C30
:102D70004030403C44281028440C5050503C44649F
:102D8000544C44000836410000007F0000004136EA
:102D90000800080408100808082A1C08081C2A084B
:102DA000080000001201100102000020A2150FA56A
:102DB000000001020301000004030904140346009B
:102DC0007200650065007300630061006C006500BF
:102DD00012035500530042002D00550041005200DF
:102DE00054000000120354004500530054005F00DB
:102DF00031002E003000000009024300020100C033
:102E0000320904000001020201010524001001053D
:102E100024010001042402000524060001070581A5
:102E20000320000209040100020A000001070582D4
:102E300002200000070503022000000020202020BF
:102E4000202020202020202020202020A20A000056
:102E5000B60A0000B60A0000B60A0000B60A000072
:102E6000E4090000F6090000B60A0000940A000018
:102E7000540A000025326C752530326C7500000054
:102E800092492492492492492400000048617070BC
:102E9000792048616C6C6F7765656E212020000099
:102EA00000000000004300002020202020202020DF
:102EB00020282828282820202020202020202020EA
:102EC000202020202020202088101010101010100A
:102ED0001010101010101010040404040404040452
:102EE00004041010101010101041414141414101E3
:102EF00001010101010101010101010101010101C2
:102F000001010110101010101042424242424202D0
:102F10000202020202020202020202020202020291
:102F2000020202101010102000000000000000003B
:102F30000000000000000000000000000000000091
:102F40000000000000000000000000000000000081
:102F50000000000000000000000000000000000071
:102F60000000000000000000000000000000000061
:102F70000000000000000000000000000000000051
:102F80000000000000000000000000000000000041
:102F90000000000000000000000000000000000031
:102FA0000000000000000000232D302B2000686C82
:102FB0004C0065666745464700303132333435365C
:102FC0003738394142434445460030313233343595
:0B2FD0003637383961626364656600C3
:102FDC00B0FEFF1F5CFFFF1F3CFFFF1F84000020A3
:102FEC0048FEFF1F24FEFF1F90FEFF1FF4FEFF1F75
:102FFC00E400002018FFFF1F6CFEFF1F80FFFF1F67
:10300C00C400002000FEFF1FA4000020D4FEFF1F00
:10301C00B82D0000BC2D0000D02D0000E42D0000C8
:10302C0001000000313230300000000007000000C9
:10303C000101070007000000000000000000000074
:10304C000000000000000000000000000000000074
:10305C000000000000000000A52E00000000000091
:10306C000000000000000000000000000000000054
:10307C000000000000000000000000000000000044
:10308C000000000000000000000000000000000034
:10309C00000000000000000068F0FF1FA72E0000D9
:0400000300000410E5
:00000001FF
