:1000000090FFFF1F85120000091300000913000074
:1000100000000000000000000000000000000000E0
:1000200000000000000000000000000009130000B4
:10003000000000000000000009130000F1120000A1
:100040000913000009130000091300000913000040
:10005000000000000913000009130000091300004C
:100060000913000009130000091300000913000020
:100070000913000009130000091300000913000010
:100080000913000009130000091300000913000000
:10009000091300000913000009130000000000000C
:1000A000FD120000091300000913000009130000ED
:1000B00009130000000000000913000009130000EC
:10040000FFFFFFFFFFFFFFFFFFFFFFFFFEFFFFFFFD
:1004100090B583B000AF78607B68202B27DC154A4D
:100420001449C0235B00C9587868134B034004D5B6
:10043000013B20204042034301330120041C9C4027
:10044000231C1943C0235B00D1500A4A094B196889
:100450007868094B034004D5013B20204042034308
:1004600001330120041C9C40231C0B431360BD4638
:1004700003B090BD00E100E01F00008080B582B0B5
:1004800000AF021CFB1D1A70FB1D1B78012B0DD049
:10049000022B1FD0002B32D11F4A1F491F4BCB58B4
:1004A000A021C90219431D4BD15028E000F042F8A9
:1004B000194A1949194BC958194B1940174BD150B2
:1004C000154A1549154BCB588021C9021943134BC6
:1004D000D15014E0104A1049104BC958114B194023
:1004E0000E4BD1500C4A0C490F4BCB588021890040
:1004F00019430D4BD1500D4B802292005A61064A90
:1005000005490B4BCB588021C9021943084BD150E8
:10051000BD4602B080BDC04600700440041000001B
:10052000FFFFFEFFFFFFFBFF3810000000900440BC
:100530003410000080B500AFBD4680BD80B582B0EC
:1005400000AF78600A1CFB1C1A70FB1C1B78013B77
:100550007A68D2180A4B1A600A4B7A681A600A4BFA
:10056000FA1C12781A70094B7A681A60084B7A687C
:100570001A60084B00221A70BD4602B080BDC0460A
:1005800018F6FF1F20F6FF1F29F6FF1F24F6FF1F96
:100590001CF6FF1F28F6FF1F80B500AF3C4B1A6802
:1005A0003C4B1A603C4B00221A700120FFF766FF9B
:1005B0001820FFF72DFF394A384986235B00CB5CB2
:1005C000DBB2802149420B43D9B286235B00D15470
:1005D000C046324A86235B00D35CDBB2DBB25BB23F
:1005E000002BF6DB2D4A2E4B1B0AD9B29C23D1548B
:1005F0002A4A2B4B1B0CD9B2B023D154274A284B83
:100600001B0ED9B2B423D154244A24498023CB5C95
:10061000DBB202210B43D9B28023D1541F4A1F49B8
:100620008423CB5CDBB201210B43D9B28423D154A8
:100630001A4A1A4980235B00CB5CD9B23F230B4096
:10064000D9B280235B00D154144A144986235B003D
:10065000CB5CDBB240210B43D9B286235B00D15483
:100660000E4A0E499423CB5CDBB201210B43D9B275
:100670009423D154094A094984235B00CB5CDBB243
:1006800010210B43D9B284235B00D154BD4680BDF9
:1006900000F0FF1F44F8FF1F7CF9FF1F00200740F8
:1006A00000FAFF1F80B586B000AF3960FB1D011C4A
:1006B0001970BB1D1A703B1C103300221A803B1CA2
:1006C0000F33FA1D12781A70FB1D1B78002B04D013
:1006D000FB1DFA1D127892001A70FB1DFA1D12788C
:1006E00002321A70FB1D1A785A4B9200D3587B6164
:1006F000594B1B781A1C0123134024D0574B3A68DE
:100700001A60574BBA1D12781A70564B1B68DB796A
:100710001B0299B2534B1B689B791A1C3B1C10336C
:100720008A181A80BB1D1B789BB23A1C10321288A3
:100730009A4208D2FB1D1B78022B04D1494B1B683F
:100740009A79474B1A70FB1D1B78474AD25C444B81
:100750001B789A4218D2FB1D1A783B1C133342496E
:100760008A5C1A703E4B1A78FB1D1B783E49CB5CA5
:10077000D31ADAB23A4B1A70374B1B7801229343E3
:10078000DAB2354B1A700EE03B1C1333344A127840
:100790001A70334B00221A702F4B1B78012213431F
:1007A000DAB22D4B1A70FB1D1B783A1C13321278EB
:1007B00092B22E49DB00CB185A8009E07B695A1CA3
:1007C0007A61264A1268501C2449086012781A700F
:1007D0003B1C13331B783A1C1332591E1170002B2B
:1007E000ECD1234B1B781A1C3B1C0F331B78DA40CF
:1007F0000123134016D0FB1D1A781C4BD200882110
:10080000D1543B1C0F331B780122111C99400B1C47
:10081000DBB2DB43DBB2164A12781340DAB2144B78
:100820001A7013E0FB1D1A78104BD200C821D15466
:100830003B1C0F331B780122111C99400B1CDAB2B0
:100840000B4B1B781343DAB2094B1A70BD4606B046
:1008500080BDC04600F0FF1F38F9FF1F80FAFF1F60
:1008600020F8FF1F44F8FF1FB022000000FAFF1F0E
:10087000D0F8FF1F80B584B000AF021C3960FB1DAB
:100880001A70FB1D1A78FB1D01321A70FB1D1A78B5
:10089000144B9200D358FB60FB1D1B78124ADB00FF
:1008A000D3185A883B1C0B331A70FB1D3A1C0B32B1
:1008B00012781A7007E03B685A1C3A60FA68511CBB
:1008C000F96012781A703B1C0B331B783A1C0B3200
:1008D000591E1170002BEED1FB1D1B78181CBD4654
:1008E00004B080BD00F0FF1F00FAFF1F80B584B088
:1008F00000AF021CFB1D1A70FB1D1B789B000E4AEB
:10090000DB00D3185B881B0A9BB2DAB2FB1D1B7895
:100910009B000949DB00CB185B881B02DBB2134349
:10092000DAB23B1C0F331A703B1C0F331B789BB29F
:10093000181CBD4604B080BD00FAFF1F80B500AF93
:100940001C4AC4230521D1541A4AC8230521D15475
:10095000184ACC230921D154164AD0230121D1545D
:10096000144AD4230121D154124AD8230121D1544D
:10097000114A30230021D1540F4B00225A860F4ACE
:100980000D4B5A630C4A50230021D1540A4A52237A
:100990000021D1520A4A084B5A65074A6023802138
:1009A000D154054A6223FF21D152064A024B5A66AE
:1009B000BD4680BD0020074000FAFF1F90F8FF1FD2
:1009C0006CF8FF1FC4FAFF1F80B500AF3C4B1B68DB
:1009D0005B78092B6ED89A003A4BD3181B689F4658
:1009E000002000210022FFF75DFE374B03221A7022
:1009F00063E0334B1B68DB78022B0AD0032B0FD04C
:100A0000012B22D1314B0020191C1222FFF74AFE84
:100A10001EE02F4B0020191C4322FFF743FE17E076
:100A2000274B1B689B781A1C2A4B9200D258244BE8
:100A30001B689B78191C274B8900CB581B7800201A
:100A4000111C1A1CFFF72EFE02E000F065F9C046EB
:100A500033E01B4B1B68DA78194B1B689B78D31863
:100A6000DAB21D4B1A70164B1B68DB781A1C144B3C
:100A70001B689B78D318002B0AD0FFF75FFF00207C
:100A800000210022FFF70EFE0F4B01221A7014E026
:100A900013E0114B0020191C0122FFF703FE0CE0AC
:100AA0000E4B00221A800D4B0020191C0222FFF76A
:100AB000F9FD02E000F030F9C046BD4680BDC046F9
:100AC00044F8FF1FC02200007CF9FF1F182200001D
:100AD0006C22000040F0FF1F7DF9FF1F8CF8FF1F04
:100AE00090B583B000AF234B1B7801229343DAB259
:100AF000204B1A70204B1B681B781A1C1F231340B5
:100B0000012B10D0022B1FD0002B23D11A4B1B68B6
:100B10001B781A1C1F23134001D1FFF755FF174BF9
:100B200088221A7019E0FC1D00F0CCFA031C237017
:100B3000FB1D1B78002B03D1104B88221A700CE090
:100B40000E4BC8221A7008E000F01CF80B4B8822EC
:100B50001A7002E000F0E0F8C046094A0849942300
:100B6000CB5CDBB220218B43D9B29423D154BD4658
:100B700003B090BDD0F8FF1F44F8FF1F00FAFF1F1D
:100B80000020074080B582B000AF284B1B685B781F
:100B9000012B1DD0032B31D0002B00D042E0244B81
:100BA0001B781A1C214B1B685B79DA400123134028
:100BB00004D0BB1D802252001A8002E0BB1D00221F
:100BC0001A80BB1D0020191C0222FFF76BFD29E0D3
:100BD000164B1B685B790122111C99400B1CDBB280
:100BE000DB43DBB2124A12781340DAB2104B1A70B0
:100BF000002000210022FFF755FD13E00B4B1B687E
:100C00005B790122111C99400B1CDAB2084B1B784E
:100C10001343DAB2064B1A70002000210022FFF7BE
:100C200041FDC046BD4602B080BDC04644F8FF1F2E
:100C300068F8FF1F80B582B000AF214A9023D35CD3
:100C4000D9B2FB1D08220A401A701D4A9023D35CBA
:100C5000DAB2BB1D12091A70BB1D1B78002B18D00D
:100C6000FB1D1B78002B27D1BB1D1B789A00154B51
:100C7000D2000021D154BB1D1B780122111C9940C8
:100C80000B1CDAB2104B1B781343DAB20E4B1A70FE
:100C900012E0FB1D1B78002B02D000F017F80BE0D0
:100CA000084B1B789B061B0FDBB20D2B02D1FFF705
:100CB00017FF01E000F048F8BD4602B080BDC04615
:100CC0000020074000FAFF1F14F9FF1F80B500AF96
:100CD0000D4B1B78032B0FD10C4A0D4B1B689978D9
:100CE0009823D154084B04221A700A4B1B78012216
:100CF0001343DAB2074B1A70002000210022FFF7DD
:100D0000D1FCBD4680BDC0467CF9FF1F00200740D6
:100D100044F8FF1F38F9FF1F80B500AF084A0849A3
:100D2000C023CB5CDBB202210B43D9B2C023D15428
:100D3000044B88221A70034B20225A80BD4680BD86
:100D40000020074000FAFF1F80B500AF054B1B785D
:100D500001221343DAB2034B1A70034B88221A7034
:100D6000BD4680BD14F9FF1F00FAFF1F80B500AF1C
:100D70000F4AC023D35CDBB21A1C0223134009D0F4
:100D80000B4A0B49C023CB5CDBB202218B43D9B2A7
:100D9000C023D154064A06498023CB5CDBB28021B4
:100DA00049420B43D9B28023D154BD4680BDC046D1
:100DB0000020074080B500AF414BFF221A70414B25
:100DC00000221A70404B00221A70404AC4230021AE
:100DD000D1543E4AC8230021D1543C4ACC2300219F
:100DE000D1543A4AD0230021D154384AD423002187
:100DF000D154364AD8230021D154354B20225A8071
:100E0000344A334B5A60324BC8221A70304B20227E
:100E10005A81314A2E4BDA602D4BC8221A722C4B64
:100E200020225A822D4A2A4B5A61294B88221A7451
:100E3000274B20225A832A4A254BDA61244B8822E9
:100E40001A76224AC0230D21D154204A8823FF213B
:100E5000D1541E4A8023FF21D1541C4A98230021DB
:100E6000D1541A4A8C23FF21D154184A174984239C
:100E7000CB5CDBB208210B43D9B28423D154134A93
:100E800012498423CB5CDBB204210B43D9B2842307
:100E9000D1540E4A0D498423CB5CDBB202210B43B3
:100EA000D9B28423D154094A08498423CB5CDBB2EC
:100EB00001210B43D9B28423D154BD4680BDC04625
:100EC00038F9FF1FD0F8FF1F69F8FF1F0020074007
:100ED00000FAFF1FB0F8FF1F5CF9FF1F3CF9FF1F6E
:100EE00084FAFF1F80B500AF2A4A8023D35CDBB2AF
:100EF0001A1C0123134002D0FFF75CFF48E0254A8B
:100F00008023D35CDBB21A1C0423134003D0214A94
:100F100080230421D1541F4A8023D35CDBB2DBB28F
:100F20005BB2002B01DAFFF721FF1A4A8023D35C62
:100F3000DBB21A1C0823134015D0164A1549942316
:100F4000CB5CDBB202210B43D9B29423D154FFF71F
:100F500071FE104A0F498023CB5CDBB208210B43A2
:100F6000D9B28023D1540B4A8023D35CDBB21A1C44
:100F70001023134009D0074A06498023CB5CDBB21B
:100F800010210B43D9B28023D154024A8023D35C71
:100F9000BD4680BD0020074080B500AF0F4B00224A
:100FA0001A70FFF7F9FA0E4B0D4AD269C021890079
:100FB0000A43DA610B4B962292011A60094B002218
:100FC0001A71084B00225A71064B08229A71064B7F
:100FD000181C8021FFF7B2FABD4680BD00F2FF1F4A
:100FE00000B0044004FBFF1F0CFBFF1F80B500AFE7
:100FF0002D4B1B78DBB21A1C0223134019D02B4A4D
:101000002A499423CB5CDBB202210B43D9B294234F
:10101000D154274B00221A70264B01221A70FFF779
:10102000BBFF214B1B78DBB202229343DAB21E4B8B
:101030001A701F4B1B78202B15D0222B2CD0002B85
:1010400001D02FE004E0C0461B4B1B78012BF9D1E7
:10105000184B1B78002B02D0164B00221A70144B31
:1010600000221A701EE0154B1B781A1C0123134036
:1010700011D0124B1B7801229343DAB20F4B1A7036
:101080000F4B0020191CFFF7F5FB00200021002268
:10109000FFF708FB06E005E0002000210022FFF733
:1010A00001FBC046BD4680BD01F2FF1F0020074086
:1010B00000F2FF1F50F0FF1F7CF9FF1F14F9FF1F04
:1010C00004FBFF1F80B582B000AFFB1D00221A7029
:1010D000214B1B685B78212B11D004DC0A2B07D035
:1010E000202B13D031E0222B17D0AA2B1CD02CE0C0
:1010F0001A4B0020191C0122FFF7D4FA25E0184BE7
:101100000020191C0722FFF7CDFA1EE0154B202204
:101110001A70FB1D01221A7017E0124B22221A705E
:10112000FB1D00221A7010E00F4B181C8021FFF7E6
:1011300005FA0E4B1B78802252421343DAB20B4B56
:101140001A70094BFF221A70C046FB1D1B78181C31
:10115000BD4602B080BDC04644F8FF1F15F9FF1F11
:1011600004FBFF1F00F2FF1F0CFBFF1F14F9FF1F02
:1011700080B500AF164B164A5268802149040A43D5
:101180005A60134B124A1268802109060A431A60FA
:101190000F4B0F4A52688021C9040A435A600C4B16
:1011A0000B4A12688021C9050A431A60084B084A95
:1011B0005268802189040A435A60054B044A126828
:1011C000802189050A431A60FFF7E6FEBD4680BD0F
:1011D0000070044080B584B000AF786001235B42AA
:1011E000FB60FFF703FF144B1B781A1C0823134006
:1011F0001DD00320FFF77AFB104A62232021D15231
:101200000E4A60238021D1540B4B1B780822934354
:10121000DAB2094B1A700A4B0220191C0122FFF79F
:1012200041FA074B1A787B681A700123FB60FB6850
:10123000181CBD4604B080BD14F9FF1F00FAFF1F43
:10124000C4FAFF1F80B582B000AF78607A680B4B9C
:101250009A4201D901230CE0094B7A681202120A62
:10126000013A5A60064B00229A60054B07221A6029
:101270000023181CBD4602B080BDC046FFFFFF0022
:1012800010E000E080B582B000AF00F09BFD124B93
:101290007B60124B3B6007E03B681A1D3A607A683E
:1012A000111D796012681A603A680D4B9A42F3D3A7
:1012B0000C4B3B6004E03B681A1D3A6000221A6048
:1012C0003A68094B9A42F6D3084B181CFFF7BAFF4D
:1012D00000F074F9FEE7C0460024000000F0FF1F94
:1012E000CCF0FF1F00F2FF1F8CFBFF1F80BB000034
:1012F00080B500AF00F098FDBD4680BD80B500AF61
:10130000FFF7F0FDBD4680BD80B500AFFEE7C046EB
:1013100080B500AF0E4A88235B010021D1500C4AF2
:101320000B490C4BCB588021C9001943094BD150B4
:10133000094B802252001A60084B01229A60074B29
:10134000064A526901210A435A61BD4680BDC04622
:10135000007004403810000000A0044040F00F402E
:1013600080B582B000AF214A2049214BCB58802163
:10137000890019431E4BD1501C4A1C491D4BCB58A8
:101380008021C90019431B4BD150184A17491A4BE9
:10139000CB588021C9041943174BD150174B8022D9
:1013A00092005A60154B802292009A60144B144AA6
:1013B000526904210A435A61124B18229A72C823B7
:1013C0007B60104B7A68120AD1B21F220A40D2B257
:1013D0001A700C4B7A68D2B25A700A4B0C22DA702F
:1013E000084B4E22DA71BD4602B080BD0070044049
:1013F0003810000034100000041000000090044079
:1014000000F00F4000A0064080B500AF374A3749D2
:10141000374BCB58802109011943354BD150354BFF
:10142000802292001A61334B802292005A61314B24
:10143000802292009A61304B2F4A526940210A4320
:101440005A612A4A29492D4BCB588021C903194397
:101450002A4BD1502A4B2A4AD278D2B21A210A43B7
:10146000D2B2DA70264B264A9278D2B210210A43C1
:10147000D2B29A70224B40225A70214B204AD27825
:10148000D2B240210A43D2B2DA70184A17491D4B32
:10149000CB58022119431B4BD150144A13498223C4
:1014A0005B01CB5880214900194382235B01D15055
:1014B000154B154A1278D1B240220A40D2B21A70A6
:1014C000114B114A1278D2B26F2149420A43D2B26B
:1014D0001A700E4A82235B000D49D1500B4A8623B5
:1014E0005B000C49D150BD4680BDC0460070044031
:1014F0003810000000B0044080F00F4034100000AD
:10150000006007403C1000000010024000800040D6
:10151000066007408000526080B582B000AF7860FE
:101520003960C046174A84235B00D25880239B044D
:101530001340F7D1134A84235B0080214904D15022
:10154000104A796880235B00D1500E4A3B681B0229
:10155000190A84235B00D1500A4A0A4986235B009A
:10156000CB588021C905194386235B00D150064B17
:10157000054A9278D2B220210A43D2B29A70BD466F
:1015800002B080BD008000400060074080B500AF21
:1015900000F056FC021C074B1B68D31AFA2B07D924
:1015A00000F04EFC021C034B1A60034B0122DA6070
:1015B000BD4680BDFCF5FF1F40F00F4080B584B0F4
:1015C00000AF3B1C0E3300221A70FFF7A1FEFFF79D
:1015D0001BFFFFF7C5FE714AFE239B00101C002174
:1015E0001A1C00F090FC6E4B181C00F0C7F9FFF7B6
:1015F000BFFDFFF7CBFF00F079FB00F021FC021CE0
:10160000684B1B68D31A322B0BD900F019FC021C53
:10161000644B1A60614AFE239B00101C191CFFF7E3
:101620007BFF3B1C0D33181CFFF7D4FD031C01335B
:1016300000D1B2E03B1C0E331B78002B00D18DE0B3
:101640003B1C0D331B78672B42D006DC0D2B0FD0D3
:10165000622B4ED00A2B0BD071E0722B27D002DC0C
:10166000692B57D06BE0732B5BD0742B60D066E096
:101670003B1C0E3300221A703B1C0F331B783A1CA4
:1016800008320021D1543B1C08331B786B2B0DD141
:101690003B1C08330133181C00210A2200F0BAFC5D
:1016A000031CDBB2181C00F091F956E055E03B1C1E
:1016B0000E3300221A7000237B6000F0BFF9031C78
:1016C0001A1C7B1D1A703B1D181C00F0A9F944E080
:1016D0003B1C0E3300221A7000237B6000F0AEF931
:1016E000031C1A1C3B1D1A703B1D181C00F098F9B6
:1016F00033E03B1C0E3300221A7000237B6000F0A5
:101700009DF9031C1A1CBB1D1A703B1D181C00F010
:1017100087F922E03B1C0E3300221A7000F098F982
:101720001BE03B1C0E3300221A7000F0C1F914E0DC
:101730003B1C0E3300221A7000F0CEF90DE03B1C6A
:101740000F331B783A1C0F32591C11703A1C0D32A2
:1017500011783A1C0832D154C0461EE03B1C0D33B0
:101760001B78112B08D13B1C0E3301221A703B1C35
:101770000F3300221A7010E03B1C0D331B78181C2D
:1017800000F0BEF9031C002B06D03B1C0D331B7868
:10179000181C00F08DFAFFE7C0462AE704F2FF1F8D
:1017A00008F3FF1F00F6FF1F80B588B000AFF86098
:1017B000B9607A600023BB6158E000237B61FA685E
:1017C000BB69D2183B1C1E3312781A703B1C1F33A6
:1017D00000221A701FE03B1C1E331B785BB2002BEB
:1017E00004DA7B69062213437B6103E07B690422F0
:1017F00013437B613A1C1E323B1C1E331B78DB18E3
:1018000013707B69DB007B613B1C1F331A783B1C28
:101810001F3301321A703B1C1F331B78072BDAD998
:101820007B69DB087B61BA69131C5B009B18BA6893
:10183000D3183A1C163212781A70BA69131C5B005E
:101840009B180133BA68D3183A1C153212781A70F3
:10185000BA69131C5B009B180233BA68D3183A1C90
:10186000143212781A70BB690133BB61BA697B68A4
:101870009A42A2D3BD4608B080BDC04680B582B0B2
:1018800000AF021CFB1D1A70FB1D1A78394B1B6838
:101890009A420CD9384B9B78013BDAB2364B9A709E
:1018A000354B1B780133DAB2334B1A704DE0FB1D18
:1018B0001B785B001A1C2F4B1B689A4201D9C0464B
:1018C00043E0FB1D1A78131C5B009B181A1C294B64
:1018D0001B689A420CD9284B1B78013BDAB2264B85
:1018E0001A70254B5B780133DAB2234B5A702CE027
:1018F000FB1D1B789B001A1C1E4B1B689A4201D9CA
:10190000C04622E0FB1D1A78131C9B009B181A1C72
:10191000184B1B689A420CD9174B5B78013BDAB223
:10192000154B5A70144B9B780133DAB2124B9A70F4
:101930000BE0FB1D1A78131C5B009B185B001A1C44
:101940000C4B1B689A4200D9C0460A4B1B68591CB5
:10195000FB1D1A78131C5B009B185B00081C191CEC
:1019600000F0BCFA0B1C1A1C024B1A60BD4602B0F8
:1019700080BDC0465CF0FF1F54F0FF1F80B584B0EF
:1019800000AF78600E4B7A681A600023FB600FE0AE
:101990000B4B1A68FB68D2180A4B111C1A1C09233E
:1019A000081C111C1A1C00F0A5FAFB680933FB6027
:1019B000FA68054B9A42EBDDBD4604B080BDC046D7
:1019C00004F6FF1FE8220000F302000080B582B099
:1019D00000AF021CFB1D1A700F4BFA1D12781A7013
:1019E0000E4B5B78002B03D00B4B1A780B4B5A70C5
:1019F0000A4B1B78002B03D0074B1A78074B1A7041
:101A0000064B9B78002B03D0034B1A78034B9A703C
:101A1000BD4602B080BDC0465AF0FF1F54F0FF1F04
:101A200080B582B000AF78607B681A68024B1A609C
:101A3000BD4602B080BDC04654F0FF1F80B500AF68
:101A4000024B1B78181CBD4680BDC0465AF0FF1FD4
:101A500080B500AF124B1B785A1E9341DBB20122B6
:101A60005340DBB21A1C01231340DAB20C4B1A703C
:101A70000B4B1B78002B11D00A4B1B781A1C0A4BFE
:101A80001A600A4B00221A60084B00225A70054B5C
:101A90001A78064B1A70054B00229A70BD4680BD1D
:101AA00058F0FF1F5AF0FF1F5CF0FF1F54F0FF1F9C
:101AB00080B500AF074B1B785A1E9341DBB2012261
:101AC0005340DBB21A1C01231340DAB2014B1A70E7
:101AD000BD4680BD59F0FF1F80B500AF074B1B7896
:101AE0005A1E9341DBB201225340DBB21A1C012380
:101AF0001340DAB2014B1A70BD4680BD08F6FF1FD5
:101B000080B582B000AF021CFB1D1A70FB1D1B7854
:101B10001F2B05D9FB1D1B787E2B01D8012300E06C
:101B200000231A1C01231340DBB2181CBD4602B06F
:101B300080BDC04680B586B000AFF860B9607A60FD
:101B40003B60FB68181C0C2100F084F9031C542234
:101B500053437B61BA68131C5B009B189B007A6936
:101B6000D3187B61BA680123134008D0FB68181CA6
:101B70000C2100F0B3F90B1C0B22D31A05E0FB6813
:101B8000181C0C2100F0AAF90B1C7A69D3187B6190
:101B900039687A69131CDB009B187A68D318081C13
:101BA000191C0322FFF700FEBD4606B080BDC046EB
:101BB00080B584B000AFF860B9607A60B968F86841
:101BC0007A68034BFFF7B6FFBD4604B080BDC04640
:101BD000F422000080B588B000AFF8607A603B6006
:101BE0003B1C0B330A1C1A703B1C0B331B781A1C52
:101BF000203A131C9B009A182C4BD3187B610023AE
:101C0000FB6134E00023BB612BE07A69FB69D318E8
:101C10001B781A1CBB691A41012313400ED0FA68C5
:101C2000FB69D318181C0C2100F058F90B1C181C68
:101C3000B9697A683B68FFF77DFF0FE0FA68FB69D6
:101C4000D318181C0C2100F049F90B1C191CBA6997
:101C50007B68081C111C1A1CFFF7AAFFBB69013323
:101C6000BB61BB69062BD0D9FB690133FB61FB6902
:101C7000042BC7D90023BB6111E0FB680533181C96
:101C80000C2100F02BF90B1C191CBA697B68081C8D
:101C9000111C1A1CFFF78CFFBB690133BB61BB69C8
:101CA000062BEAD9BD4608B080BDC04630200000F2
:101CB00080B582B000AF021CFB1D1A70094B1B7867
:101CC0005A1CD1B2074A1170074AF91D0978D1543C
:101CD000044B1B78012B02D9024B00221A70BD461F
:101CE00002B080BD09F6FF1F60F0FF1F80B582B013
:101CF00000AF00F0A5F8021C294B1B68D31A642B17
:101D00004BD9284B1B78002B16D000237B600FE0AB
:101D1000254B19687A68131CDB009B18CB18234AE3
:101D2000101C191C0322FFF73FFD7B6801337B6009
:101D30007B68532BECDD17E000F082F8021C184B97
:101D40001A601B4B18681B4B1978174B1A68174BF6
:101D5000FFF740FF164B1B68981D164B5978124B26
:101D60001A68124BFFF736FF134B1B78002B0BD072
:101D70000F4B1B685A1E0E4B1A600D4B1B680B2B2A
:101D800002D90B4B0B221A600C4B1B78002B04D092
:101D90000B4B1B78181CFFF771FDBD4602B080BDD0
:101DA0000CF6FF1F08F6FF1F04F6FF1F54F0FF1F7D
:101DB00010F6FF1F60F0FF1F59F0FF1F58F0FF1FC4
:101DC0005AF0FF1F80B500AF124B124AD278D1B241
:101DD0001F220A40D2B2602149420A43D2B2DA70CD
:101DE0000D4A0D490D4BCB58E0218B43402119433F
:101DF0000A4BD150084A0849094BCB5880210901A8
:101E00001943074BD150074BA822D200DA60BD46D8
:101E100080BDC04600400640007004400410000031
:101E20003810000000B0044080B500AF034B1B68C1
:101E30005A1C024B1A60BD4680BDC04614F6FF1FF7
:101E400080B500AF024B1B68181CBD4680BDC04664
:101E500014F6FF1F002934D00123002210B4884259
:101E60002CD301242407A14204D2814202D20901C9
:101E70001B01F8E7E400A14204D2814202D24900EA
:101E80005B00F8E7884201D3401A1A434C08A0428D
:101E900002D3001B5C0822438C08A04202D3001B23
:101EA0009C082243CC08A04202D3001BDC0822433A
:101EB000002803D01B0901D00909E3E7101C10BC5E
:101EC0007047002801D00020C04307B4024802A197
:101ED0004018029003BDC046190000000029F0D050
:101EE00003B5FFF7B9FF0EBC4243891A1847C04635
:101EF0007047C04610B50023934203D0CC5CC45455
:101F00000133F9E710BD031C8218934202D0197007
:101F10000133FAE770470000F0B51C1C3C4B87B05A
:101F20001B68059002930491171C0B1C02991D78E5
:101F30005E1C4A19517808220A4001D0331CF5E78B
:101F40002D2D04D101229E1C5D78019204E00192A6
:101F50002B2D01D15D789E1C1023221C9A430DD19C
:101F6000302D08D1327820218A43582A49D17578FA
:101F70001C1C023602E0002C00D10A240120211C86
:101F80004042FFF767FF039001204042211CFFF70A
:101F9000A5FF00238C46181C02994A195278510754
:101FA00001D5303D07E00321114017D05722012908
:101FB00000D13722AD1AA54210DA002B09DB039AB3
:101FC000904206D801D1654503DC604301232818FF
:101FD00001E001235B4235780136DDE7002B04DAAE
:101FE000059922220A60012002E0019A002A00D00D
:101FF0004042002F09D0049A002B00D0721E3A6094
:1020000003E0002CBAD10824B8E707B0F0BDC04601
:10201000C8F0FF1F38B5131C044A051C0C1C1068BF
:10202000291C221CFFF778FF38BDC046C4F0FF1FF3
:10203000000000000000005F00000007000700141F
:102040007F147F14242A7F2A1223130864623649DE
:102050005522500005030000001C224100004122CF
:102060001C00082A1C2A0808083E080800503000F6
:10207000000808080808003030000020100804029A
:102080003E5149453E00427F400042615149462150
:1020900041454B311814127F1027454545393C4ABC
:1020A000494930017109050336494949360649490C
:1020B000291E0036360000005636000000081422A3
:1020C0004114141414144122140800020151090689
:1020D000324979413E7E1111117E7F494949363E90
:1020E000414141227F4141221C7F494949417F09A9
:1020F0000901013E414151327F0808087F00417FBC
:1021000041002040413F017F081422417F40404070
:10211000407F0204027F7F0408107F3E4141413E20
:102120007F090909063E4151215E7F09192946466A
:102130004949493101017F01013F4040403F1F2093
:1021400040201F7F2018207F631408146303047845
:102150000403615149454300007F414102040810D6
:102160002041417F00000402010204404040404001
:10217000000102040020545454787F484444383805
:1021800044444420384444487F3854545418087E0A
:10219000090102081454543C7F0804047800447D6B
:1021A00040002040443D00007F10284400417F4013
:1021B000007C041804787C080404783844444438CB
:1021C0007C14141408081414187C7C0804040848AF
:1021D00054545420043F4440203C4040207C1C2068
:1021E00040201C3C4030403C44281028440C5050B7
:1021F000503C4464544C44000836410000007F00C9
:10220000000041360800080408100808082A1C08C5
:10221000081C2A080800000012011001020000201A
:10222000A2150FA500000102030100000403090428
:1022300014034600720065006500730063006100CE
:102240006C00650012035500530042002D0055003C
:102250004100520054000000120354004500530096
:1022600054005F0031002E003000000009024300DE
:10227000020100C03209040000010202010105242C
:1022800000100105240100010424020005240600B9
:10229000010705810320000209040100020A000071
:1022A000010705820220000007050302200000004C
:1022B000202020202020202020202020202020201E
:1022C000A00A0000B40A0000B40A0000B40A00002A
:1022D000B40A0000E0090000F2090000B40A00009E
:1022E000920A0000520A000092492492492492491D
:1022F0002400000000000000000000004300002057
:1023000020202020202020202828282828202020A5
:102310002020202020202020202020202020208855
:1023200010101010101010101010101010101004B9
:102330000404040404040404041010101010101009
:1023400041414141414101010101010101010101FD
:102350000101010101010101010110101010101013
:1023600042424242424202020202020202020202CD
:1023700002020202020202020202101010102000E9
:10238000000000000000000000000000000000004D
:10239000000000000000000000000000000000003D
:1023A000000000000000000000000000000000002D
:1023B000000000000000000000000000000000001D
:1023C000000000000000000000000000000000000D
:1023D00000000000000000000000000000000000FD
:1023E00000000000000000000000000000000000ED
:0F23F000000000000000000000000000000000DE
:10240000B0F8FF1F5CF9FF1F3CF9FF1F84FAFF1FA4
:1024100048F8FF1F24F8FF1F90F8FF1FF4F8FF1F74
:10242000E4FAFF1F18F9FF1F6CF8FF1F80F9FF1F68
:10243000C4FAFF1F00F8FF1FA4FAFF1FD4F8FF1F04
:102440002C2200003022000044220000582200000C
:102450000100000007000000010107000700000064
:102460003132000000000000000000000000000009
:10247000000000000000000000000000000000005C
:1024800000000000FC22000000000000000000002E
:10249000000000000000000000000000000000003C
:1024A000000000000000000000000000000000002C
:1024B000000000000000000000000000000000001C
:0C24C0000000000064F0FF1FFE2200007E
:0400000300000410E5
:00000001FF
